:020000041010DA
:1000000000200420F7001010CB001010CD001010BD
:10001000C9001010C9001010C9001010C90010103C
:10002000C9001010C9001010C9001010CF00101026
:10003000C9001010C9001010D1001010D30010100A
:10004000C1001010C1001010C1001010C10010102C
:10005000C1001010C1001010C1001010C10010101C
:10006000C1001010C1001010C1001010C10010100C
:10007000C1001010C1001010C1001010C1001010FC
:10008000C1001010C1001010C1001010C1001010EC
:10009000C1001010C1001010C1001010C1001010DC
:1000A000C1001010C1001010C1001010C1001010CC
:1000B000C1001010C1001010C1001010C1001010BC
:1000C000EFF30580103800BE00BE00BE00BE00BECB
:1000D00000BE00BEF2EB8871E88C1410148D141071
:1000E0003801101090A31AE71E481F49086006C87F
:1000F00081F3088810471D480068002801D019487E
:10010000F3E70DA40ECC002902D000F012F8F9E7B5
:100110001749184A002000E001C19142FCD116495C
:100120008847164988471649884700BEFDE701C938
:1001300001C29A42FBD37047148D1410C0000020F6
:10014000DC2C002030B91410000004200000042032
:1001500030B914100010042000100420000000002A
:10016000704700000000000008ED00E0000000D033
:10017000DC2C00204426022071221210897B1110F1
:1001800031221210F8B5C04606480749091A8B10EB
:10019000C90FC91810B5491003D0044B002B00D06B
:1001A000984710BDDC2C0020DC2C00200000000053
:1001B000054B10B5002B03D00449054800E000BFF3
:1001C000FFF7E2FF10BDC0460000000010920120C2
:1001D000044B1310F0B50826CE4647460022761A87
:1001E000304180B5174B184C1A702278174D5618AD
:1001F0002B8880B2102E09DC8B400343F2B29BB2F5
:100200002B802270C0BCB946B046F0BD1026B61A8D
:10021000F6B2B3400E4F99463B68083A9C4601231C
:1002200063443B604B469FB263463F0A1F704B4698
:100230001B048A181B0C891B8B400343D2B29BB250
:10024000DEE7C0465420002002260220D2250220EC
:10025000F87800200822F0B5CE4647461A4B521ACD
:100260001B5C0020134180B5184A194C107022788D
:10027000184D561828889BB2102E09DC884003437D
:10028000F2B29BB22B802270C0BCB946B046F0BD22
:100290001026B61AF6B2B0400F4F81463868083AB9
:1002A0008446012060443860484687B260463F0A71
:1002B0000770484600048A18000C891B88400343D5
:1002C000D2B29BB2DEE7C046084B13105420002088
:1002D00002260220D2250220F8780020044B421C7E
:1002E0001A60044B02781A700822034B1A70704788
:1002F000F478002001260220FC2502200022044B75
:100300001860044B1A70044BAA321A807047C0461A
:10031000F878002002260220D2250220F0B5DE4621
:1003200057464E464546424AC3B2E0B5D35C000A42
:10033000105C1B02181883B080B20C1C082900D96D
:100340000824002208263B4BE4B21A703A4B361BB5
:100350009B461A88030A3341384F9BB23D782E19C9
:10036000102E11DCA24013435A46091BF5B29BB272
:10037000C9B213803D70002932D103B0F0BCBB4636
:10038000B246A946A046F0BD1026B4466646761B86
:10039000F6B2B240B4462A4E0192B0463668083DE5
:1003A000B14601264E44B246464652463260019A54
:1003B0006519924692B2120A90464A46464616700F
:1003C000524666461204120CA61BB24013435A460C
:1003D000091BEDB29BB2C9B213803D700029CCD08D
:1003E0000822C0B2521A10416A1880B2102A05DCE5
:1003F0008B403A705A4603431380BEE7104C1022DC
:100400002668521BB4460126D2B293406644266049
:1004100066469CB2240A1B0434701B0C0C00891A1B
:100420008B4018435B46083C2D193D701880A4E7AB
:10043000084B131054200020D2250220022602204F
:10044000F8780020F0B5DE4657464E464546E0B502
:100450000C1C83B0082900D90824002208263A4B36
:10046000E4B21A70394B361B9B461A88030A334193
:10047000374F9BB23D782E19102E11DCA24013434A
:100480005A46091BF5B29BB2C9B213803D700029D0
:1004900032D103B0F0BCBB46B246A946A046F0BD7F
:1004A0001026B4466646761BF6B2B240B446294ED4
:1004B0000192B0463668083DB14601264E44B24628
:1004C000464652463260019A6519924692B2120A25
:1004D00090464A4646461670524666461204120C2C
:1004E000A61BB24013435A46091BEDB29BB2C9B2D8
:1004F00013803D700029CCD00822C0B2521A10419E
:100500006A1880B2102A05DC8B403A705A460343C1
:100510001380BEE70F4C10222668521BB4460126FA
:10052000D2B293406644266066469CB2240A1B04FD
:1005300034701B0C0C00891A8B4018435B46083C36
:100540002D193D701880A4E754200020D2250220E8
:1005500002260220F8780020F0B54E464546DE46D9
:100560005746FF23E0B5AA4E98460340F25C83B29B
:100570001B0AF35C12029B18A64A85B094461478B5
:10058000A54A9BB2019212881D0A9146102950D9A2
:100590000027A24A1770082C00D9A7E06246083449
:1005A000E4B214704A4612022A43019D92B22A8094
:1005B00045461D402B009A4DAA46082C00D0BEE0AF
:1005C0001024120213439BB2FF22000C0240B25CC3
:1005D000000A305C10391202C9B2101880B20D1C2A
:1005E000082900D908250826EDB2761B020A3241F7
:1005F000661992B2102E00DDBFE0AB401A43F4B290
:1006000092B2019B491B1A806346C9B21C70002933
:1006100046D00823C0B25B1A1841631880B2102B71
:1006200000DDC5E064468A402370019B02431A80C6
:1006300036E0081C082957D80026784AC0B2167040
:100640000822121A15412218ADB2102A2FDD744F5C
:100650001026B8463F684A46B9460127361BF6B20F
:100660004F44B240BA469346474652463A605A46CD
:1006700092B2120A90464A46474617705A461204EA
:10068000120C861BB2401543019AADB2158062462A
:10069000083C0419091AE4B2C9B21470002913D134
:1006A00005B0F0BCBB46B246A946A046F0BDD4B2E8
:1006B0004A4682401543019AADB215806246091A36
:1006C000C9B214700029EBD00822DBB2521A1341D0
:1006D00062189BB2102A00DD82E08D4060461D4307
:1006E000019B02701D80DBE70820A5E71022121B8A
:1006F000D7B24A460397BA40494F0292BA463F687A
:10070000BB4601275F44B94657464A463A606A46A7
:100710001289120A91465A464F4617700827029AC4
:100720001204120C93463A00039FD71B3A005F460F
:1007300097403A002A4345461D402B0092B2574647
:100740003F681025B94601272D1BEDB24F44AA4042
:10075000B8469346574642463A605A4692B2120A03
:1007600090464A46474617705A4608271204120C0C
:100770007D1BAA4013439BB226E71026361BF6B218
:10078000B340B046264E3768B94601274F4437601C
:100790004F469EB2360A3E702E00083EA4191E0433
:1007A0004346360CEB1A9E403243E4B292B228E73D
:1007B00010231B1BDBB29A40194D2E68771C2F604B
:1007C00095B22D0A35700D001204C91A120C083D9D
:1007D0008A4064196546019B10432C7018805FE7BE
:1007E0001022121BD2B295400D480668771C076094
:1007F000A8B2000A307008002D04891A2D0C0838A0
:100800008D4024186046019A2B430470138047E7FB
:10081000084B131002260220D2250220542000206B
:10082000F8780020F0B5DE4657464E464546E0B51E
:1008300083B000900A1C102900D91022009BD6B268
:100840001B0C9846082E00D908220024784B08205B
:100850001C70784BD2B21C789C464346801A1B0A07
:100860000341754FA0183D889BB2102813DC9540BA
:10087000C4B260462B43B61A9BB2F6B23B800470FA
:10088000002E31D1102942D803B0F0BCBB46B2468D
:10089000A946A046F0BD102081464846001BC0B2C4
:1008A000854083466548019582460068083C81463C
:1008B0004D46504601350560684680881419000A87
:1008C00082464846554605705846019D101A2D042B
:1008D0002D0C854060462B43B61AE4B29BB2F6B2AB
:1008E0003B800470002ECDD0FF22404608250240F8
:1008F000AD1B2A41A51992B2102D58DCB3406046B9
:100900001343ECB29BB204703B801029BCD9103960
:10091000C9B20D1C082900D908256A460826128884
:10092000EDB2761B120A3241661992B2102E1ADC11
:10093000AB401343F4B29BB26246491BC9B23B8041
:1009400014700029A0D0FF22009802400820401A0D
:100950000241601892B2102850DC8B406446134369
:1009600020703B8090E73548102680460068361B93
:1009700081460120F6B24844B34082469B46404639
:10098000534603605B469BB21B0A98464B46404663
:10099000187008235B4298465B461B041B0CAE1B79
:1009A000B340A84444441343E4B29BB2C4E7234891
:1009B0001025804600682D1B81460120EDB2484479
:1009C000AB4082469B464046534603605B469BB223
:1009D0001B0A98464B464046187008235B429846CF
:1009E0006346B0444444E4B21C705B461B041B0CD9
:1009F000761BB34013439BB23B8043E71020001BA0
:100A0000C0B2834099460D4D2E68731C2B604B4637
:100A10009DB22D0A35700D006346083D64191C70A7
:100A20004B461B041B0C091A8B401A433A802BE7D8
:100A30005420002002260220D2250220F87800202F
:100A4000F0B51849184C0B782278984216D81B1A22
:100A5000DBB20B70002B0BD1144803685D1C1B78B4
:100A60000560237008230B701300114AD05CF0BDA1
:100A7000104B1B5C134082402270F6E70B4E35682A
:100A80006F1C2D7837602F00C61AB74027701C00E6
:100A90001D41084B08341B5C241A2A430C70134078
:100AA000E3E7C046FC25022001260220F47800205E
:100AB000084B1310084C131030B50A490A4A0B783A
:100AC000D8095B000B701378013BDBB21370002B6D
:100AD00007D1064C23685D1C1B7825600B7008232A
:100AE000137030BD01260220FC250220F47800207E
:100AF000F0B51449144C0E682378701E002B10D1E9
:100B0000124B134D1A789C462B88082A0BD80820C4
:100B1000821A934030009BB2037013412B80012353
:100B200023700860F0BD1027BF1AFFB2BB409BB214
:100B3000083A1F0A701C3770D6B262461670082237
:100B4000921BE9E7F87800205420002002260220BA
:100B5000D2250220F0B557464E464546DE46E0B562
:100B60005C4C1600A54402AA1F00832394461B0177
:100B700063441B780D009946574B0AA963441B88B0
:100B800004009846554B63441B889A4616236344D9
:100B90001A000EF0F7FD002807D0514B9D44F0BC21
:100BA000BB46B246A946A046F0BD0BA8FFF7A6FB80
:100BB00001210020FFF70EFB0C21A94289412800EA
:100BC00049420EF069FB0028E7D120000EF088FDB5
:100BD0000028E2D102ABDA8A08AB0193534602A89F
:100BE000844600933F4B200063440A991B6800F041
:100BF000F7FE0028D1D102AB1B8B9B460C2D01D9EF
:100C00000D3DEDB228000EF03BFB059020000EF0EC
:100C10004DFD5946824620000EF046FD0400280096
:100C20000EF0D8FA0028B8D12000504480B20EF05F
:100C300089F9059B1A240133C01883B29A4602AB86
:100C40009C461E2509AB64446544009332003B007A
:100C5000414650460294019515F024FE00289CD18F
:100C600053462788FF1ABFB2202F12D93E00203EDC
:100C700020210020B6B2FFF7D5FD202EF7D83B008B
:100C8000213B9BB25B09DA02D31A5B01203FFF18BC
:100C9000BFB2F9B20020FFF7C5FDFFF729FF01231E
:100CA00021880BA80F31C91099430EF0B3FD0BA892
:100CB000FFF714FB02AB02AA988B842394461B0116
:100CC00063441B6829884A460093434615F07EFE1C
:100CD00063E7C046ECF7FFFF340800003C08000063
:100CE0001408000038080000F0B557464E46454647
:100CF000DE46E0B56A4C9046A54404AA944699465F
:100D0000684B0F0063441B780CA90493664B0600E4
:100D100063441B889B46654B63441B889A46644B1F
:100D200063441D686A792B7912021A43AB79EC7916
:100D30001B04134324061C43162363441A000EF0BD
:100D400021FD002807D05B4B9D44F0BCBB46B2465A
:100D5000A946A046F0BD2000FFF7D0FA30000EF003
:100D6000BFFC0028EFD104ABDA8A0AAB01935346EB
:100D700004A80093AC2384461B01634430000C9903
:100D80001B6800F02DFE0028DDD104AB1B8BBA469A
:100D900005930C2F03D93B000D3BDBB29A4650461E
:100DA0000EF06EFA069030000EF080FC0599079068
:100DB00030000EF079FC060050460EF00BFA0028C9
:100DC000C1D1079B981980B20EF0BCF804AA9446D2
:100DD0001A23634402931E23069E63440136861938
:100DE000B6B201930BAB009342464B4659463000D6
:100DF00015F058FD0028A6D11821FFF713FDFFF7C5
:100E000077FE2000FFF76AFA0DA8FFF777FA0121B5
:100E10000020FFF7DFF90C21B9428941380049422F
:100E20000EF03AFA002800D08DE70EF0A5F80EF08B
:100E3000DDF9002800D086E704AB5B8B9E1BB6B2C1
:100E4000202E12D93400203C20210020A4B2FFF72C
:100E5000E9FC202CF7D83300213B9BB25B09DA0276
:100E6000D31A5B01203EF618B6B2F1B20020FFF7AC
:100E7000D9FCFFF73DFE04AB598B01230F31C9109C
:100E800099430DA80EF0C6FC0DA8FFF727FA04AB96
:100E9000D98B988B049A5B46009515F097FD52E725
:100EA0005CF5FFFFB80A0000BC0A0000C40A00009D
:100EB000C80A0000A40A0000104B10B518700EF00C
:100EC0009FFC0EF05DFC002800D010BD00F0DAF8A9
:100ED0000028FAD10DF08CFD15F0D4FC0028F4D1D7
:100EE000074B084A1A60084B084A1A60084B094A1F
:100EF0001A60094B094A1A60E7E7C046F625022046
:100F0000CC780020E04C1310D07800209C4C1310BB
:100F1000D4780020584C1310D8780020144C1310AB
:100F200010B50EF061F800280BD1064B064A1C687C
:100F300011681460054A14681C60054B1C68196030
:100F4000146010BDD0780020CC780020D478002028
:100F5000D8780020F0B5DE464E46574645460C0090
:100F6000E0B58BB0984614AB1F7815AB1B88060014
:100F7000079317AB1B880D2120009B4606921DF09E
:100F8000D7FECBB299460C2C2AD9002015F04EFA88
:100F9000394B9A461B78012B2AD0384B1B78012BF2
:100FA00038D04B46002B4CD0189B210004935B4655
:100FB0000393169B30000293079B069A01930097B8
:100FC0004346FFF791FE050053461B78012B4CD09A
:100FD00028000BB0F0BCBB46B246A946A046F0BD07
:100FE000012015F023FA244B9A461B78012BD4D10B
:100FF00058460EF007FC051E3BD05A4616991FF0C6
:10100000A9FC594628000EF03DFC1C4B16951B7898
:10101000012BC6D1300008AA09A90EF0B3FB051EAA
:10102000D6D102A98C461A22624401920A8B300062
:101030000092099B5A46169900F0EEFB051EB0D0AF
:10104000C2E7189B210004935B460393169B300074
:101050000293079B069A019300974346FFF77AFD98
:1010600053461B780500012BB2D116980EF0CEFB2B
:10107000AEE7034DACE7C046F62502205520002020
:10108000041000000023044A00201380034A138048
:10109000034A13807047C046CA250220D02502208B
:1010A000CC250220F0B5DE464E4645465746E0B513
:1010B0008DB0934616AA1688CF4A0C0011880500F9
:1010C000814225D0002E13D10023179A601E138071
:1010D000431E9841FA234042DB001840C74B9C4610
:1010E00060440DB0F0BCBB46B246A946A046F0BD78
:1010F000482D24D8112D53D82B00083B022B00D9A2
:101100001EE20023179A1380012C47D0BC48E8E761
:10111000BC480788B742D5D1482900D10CE2002944
:1011200000D0E6E2179B013C1980631E9C41FA2324
:101130006042DB001840B44B9C466044D1E7002B72
:1011400027D00320AF4915800E80B049087059465A
:10115000C91801390978212900D1D6E13F2900D1E8
:10116000CAE2AB49AB480B8000210170AA4801706C
:101170009E4200D181E0179B601E1980431E98415A
:10118000FA234042DB001840A44B11809C46604487
:10119000A7E71380179A1380012CB7D1A048A0E7C6
:1011A000482DAED1974848231380002201219D4B42
:1011B00006801A709C4B1E80964B1970964B1970C6
:1011C0009A4B1A709A4B1B78012B02D0002C00D03E
:1011D000B6E2002205218D4B964D1A70964B197080
:1011E000964B01391970964B0339196028315960B3
:1011F000944999609449D9601621944B2B60944B83
:101200001970B310B10888469B009E4200D191E24C
:10121000162300279946123B9A46033B05935146F5
:1012200030001DF05DFD013989B26A5C1300894907
:101230000A704A4641464A439B189BB2012F00D18F
:10124000B2E0059A012A00D1AAE1834A1E339BB27B
:101250001380C3221201964200D899E00023179A06
:10126000013C1380631E9C41FA236042DB0018405E
:101270008023DB009C46604433E700210591069102
:101280004C20A8428041694940420870FA21490037
:101290008B4200D943E2634A019511000792002274
:1012A0000A7000210391013188465F4A0A9408922E
:1012B00016806A4A994617004546340092466849A6
:1012C0000B370497029109930B965B461E784B46A9
:1012D000012B00D8EFE0013B9BB2994601239C46CD
:1012E000E3440123BB605A2E00D9F4E1222E5BD9DE
:1012F0003300233BDBB2372B56D8029A9B00D358DE
:101300009F4601233B70413B9846019BB0444C2BC8
:101310004AD88020414640041DF00AFDFE70434635
:101320007B600023BB707B70854200D9C6E04346DA
:101330006B43BD601D000C239C46013CA4B20C37DE
:10134000E244002CC1D1A8464346013B019D0A9CC2
:101350000B9E190E00D100E22022C9B24BB2002B25
:1013600005DB4B00013AD9B2D2B21B06F9D5039B7B
:1013700004990C3FD3187A709BB28A704C2D13D805
:10138000069A012A00D15CE7334A10339BB21380DE
:10139000179A00201380A4E600233B702F3B984649
:1013A000019BB0444C2BB4D9FE20800099E6022367
:1013B0003B70019B4C2BF7D81B232A489846AEE77D
:1013C0000823079A3B701378002B05D10133137063
:1013D000099B089A1B1B13804B46002BE4D05B46ED
:1013E0001B782B2BE0D0069B012BDDD080235B02EA
:1013F0000120984693E7C046CA250220FE0300005C
:10140000C50B0000CC250220F3030000FA250220C2
:10141000D025022008260220FB250220FD03000023
:10142000F503000006260220D4250220052602200E
:10143000F525022004790020F92502200726022044
:10144000DC78002091060000390D0100060B111612
:10145000FF250220FE250220CE250220AD8500209A
:10146000244D1310427B090007233B70019B4C2B3A
:101470009AD8802380205B00984640024FE70323E0
:101480003B70019B4C2B8FD82523BD48984646E7DF
:1014900005233B70019B4C2B86D82923B9489846DD
:1014A0003DE704233B70019B4C2B00D97CE70B23C9
:1014B000B548984633E70023994612E7013D290EC7
:1014C00000D028E1FF231B041D4200D02DE1FF23A3
:1014D0001B021D4200D03BE108220823EDB268B296
:1014E000002806DB6A00013BD5B2DBB21206F9D553
:1014F0001A0051460B70039945468C46624492B2DD
:101500000392049A0497937015E7A049013B9BB29C
:101510000B809F49023808709E490870B34200D979
:10152000CBE00121059101210691002B00D0A7E617
:101530001380179A138037E7002E00D1C4E532E6F6
:10154000954B0A271E8000231580944A01211370B1
:10155000AF425B41924ADBB216808D4AAF42BF4137
:1015600011701A0005938B4B7F421A708D4B280027
:101570001F7009311DF0DCFB89B2072900D9C3E5D2
:10158000894B89005B589F46072007230121874A22
:1015900073431170864A9BB210700A2D00D903E77D
:1015A000844A19339BB21380FA225200964200D922
:1015B00054E6EDE600227D4B7F4D1A707F4B0332DF
:1015C0001A707F4B01321A707E4B033A1A60243234
:1015D0005A607D4A9A607D4ADA607D4B04222B6016
:1015E0001523924699467B4A5146137030001DF0F0
:1015F00077FB83B2984653465843864200D00EE6A6
:1016000000231A0013E60022684B6B4D1A706B4BD7
:1016100005321A706A4B013A1A706A4B033A1A6023
:1016200028325A606C4A9A606C4ADA606C4B042229
:101630002B60162392469946D5E700225B4B5E4D00
:101640001A705E4B02321A705D4B03321A705D4B9A
:10165000043A1A601A325A60624A9A60624ADA6040
:10166000624A2A60624A1A61182305229946924604
:101670002B71B8E700224D4B4F4D1A704F4B04327F
:101680001A704F4B02321A704E4B053A1A600A32EA
:101690005A606E329A60574ADA60574A2A60574A4F
:1016A0001A61574A5A61574B0622AB80152392465E
:1016B000994698E70820082368E700231380179AC3
:1016C000601E1380434258414F4B404218404F4BDD
:1016D0009C46604405E57E2E00D065E606233B70FF
:1016E000019B4C2B00D95FE6802080238002984626
:1016F00015E6304B1B884BE601202449013B9BB289
:101700000B8023490870002022490870B342D4D8C6
:101710000021059107E720222023CDB2DFE6002338
:101720001380179A3A481380DBE42D0C18221823F3
:10173000EDB2D4E6374B1A7016234B439BB22FE71A
:1017400002221A4B1A70B7231A4A5B0013801FE655
:101750002D0A10221023EDB2C1E6FF22120413421B
:1017600006D1FF221202134206D10822D9B2F5E5B2
:101770001B0C1822D9B2F1E51B0A1022D9B2EDE5F3
:101780003EEB0600703E0600D1451700D025022032
:1017900008260220FB250220CC2502200626022056
:1017A000D425022005260220044E1310FA2502201B
:1017B000FD250220CE25022004790020F9250220F3
:1017C00007260220DC78002059050000DDC5000056
:1017D000060B1015FF25022091060000390D0100AF
:1017E000060B1116D9020000E34C0000050A0F1485
:1017F000F11B08003305000004070B0E313900000F
:101800001B7502001215000030F8FFFFCF0B00001F
:10181000F6030000FE250220F0B5C6460C000021AC
:10182000150000B584B00B9E1A0031800E3169445A
:101830000AAB1B88019100950121FFF733FC0028BA
:101840000CD1604B1B78022B06D00BD8002B1FD07D
:101850005D4B1B78072B5FD00023338004B080BC26
:10186000B846F0BD032B22D1002DF5D0338857495F
:10187000ED18AAB29046564A944601330A789BB2B4
:1018800027783380082A12D865469200AA589746CE
:10189000002DE1D04F4B1A783388022A4ED0032A0C
:1018A0005BD0042A6CD0052A79D0013333804A48B2
:1018B000D4E7402F0AD9CA78BA4207D30C31013491
:1018C0004345DAD1C8E77FB2002FF7DA4348C5E7CE
:1018D000202FF3D03A00413A192AEFD92C3F0D2F8F
:1018E000ECD9F3E72B2FE9D0F0E72F2FE3D83B48D3
:1018F000B4E7202FE2D03A00413A192ADED907E0B6
:10190000202FDBD0413F192FD8D9DFE7202FD5D0AA
:10191000303F092FD2D9D9E7002D9DD033885D19EA
:10192000ADB202E00134AB4296D0227801339BB2D3
:1019300052B23380002AF5DA28488FE75D19ADB23C
:10194000227801339BB23380202A02D0413A192AEF
:10195000BCD80134AB42F3D17EE75D19ADB2227839
:1019600001339BB23380202A06D011004139192956
:1019700002D9303A092AA9D80134AB42EFD16BE73A
:101980005D19ADB2227801339BB23380202A02D098
:10199000303A092A9AD80134AB42F3D15CE75D1999
:1019A000ADB2227801339BB23380202A06D01100D9
:1019B0004139192902D92C3A0D2A87D80134AB4272
:1019C000EFD149E7FA250220FD250220B885002045
:1019D000244E1310F92502205014000001040000C9
:1019E000F0B54546DE4657464E46E0B506000020B7
:1019F00087B01C0010AB1D88C34B8046187002A82E
:101A000084460E23634401933000130000950A00BE
:101A10000121FFF747FB071E38D102ABDB89119A82
:101A20001380482E1CD0B94B1B78012B00D11DE12F
:101A3000B74B1B88984600F0A3F9F0B200F0A6F966
:101A4000300A00F0A3F94146200000F0BBF900F095
:101A5000DFF91021FEF762FCAE4B1B78012B20D082
:101A6000AD4B1B78022B26D000D972E0002B32D070
:101A7000002D0ED06519A94EADB220783178013411
:101A8000FEF7E8FBA3B2AB42F7D102E04246119B5E
:101A90001A80380007B0F0BCBB46B246A946A04643
:101AA000F0BD9F4B1B78012B00D161E10E21280076
:101AB000FEF734FCD4E79B4E350034002C352088EB
:101AC00010210234FEF7BEFCA542F8D10E21B08DE4
:101AD000FEF7B8FCDDE7002DDBD000220392924A2E
:101AE00026009046914A00239246914A91466219F7
:101AF0009346424612783178042A00D1B9E000D9E1
:101B0000A2E0022A00D1B9E0032A20D10A00403A1B
:101B1000D0B28446120600D5C8E0614650465A1C31
:101B20009B001B58D2B24B4303998C469C4463469E
:101B300003934B461B78934200D1A6E05B460136E7
:101B4000B1B29BB2994200D1CCE01300D1E7794FFA
:101B50009FE7032BFBD1002D9BD0774B00209846AD
:101B6000764E337822780134082BF0D841469B001A
:101B7000CB589F46303AD2B20C239946013DADB2C4
:101B8000B144B36871785343C018002958D1002D6F
:101B900000D17EE74E46E4E71300403BD9B2013D59
:101BA0008A46A9B28B460C218946B144CC461B0615
:101BB00000D585E052465D46E3E71300403BD9B2CD
:101BC0008C460C218946013DADB2B1441B0672D44E
:101BD0006246D6E7013D202A7DD00C239946403A43
:101BE000ADB2B144D2B2CCE70C239946013DADB2BF
:101BF000B144202A6DD02F3AD2B2C2E7413AD2B2D4
:101C0000BAE76B1E9BB29A460C239946B144012D4C
:101C100000D1B2E04B46002504E00135ADB20C33F3
:101C2000AA4502D01A78082AF7D100F0A9F82900AD
:101C3000200000F0C7F8554600F0EAF80022A0E7BF
:101C4000FEF78AFC0020A2E7052A80D10A00403A6C
:101C5000D0B28446120600D45FE70A00203AD2B21E
:101C60000F2A25D83648920082589746FE27BF0093
:101C70000FE7202907D02F39C9B24FE7202902D01A
:101C80004039C9B24AE7002148E72E4B604619782F
:101C9000FEF762FC013663199BB2B2B2934200D1E7
:101CA000F7E6002300220393130022E72029EAD05D
:101CB0001539C9B232E7202A0BD0153AD2B260E703
:101CC0001300203BDBB20F2B15D81F499B00CB58CC
:101CD0009F46002255E70C239C46B444E14600226F
:101CE000ADB24EE7002A00D1D3E6184B039819781D
:101CF000FEF732FCCDE6153A5D46D2B241E7282127
:101D00000CE727210AE7C046F52502200526022018
:101D1000D425022008260220FA250220FD250220D3
:101D2000FB25022058200020F9250220DC78002025
:101D30000726022050140000484E1310B8850020DA
:101D40006C4E1310FF250220AC4E1310FE2502200E
:101D50002621E3E62521E1E65D46272211E75D46DF
:101D600028220EE75D4626220BE75D46252208E77E
:101D700009212800FEF7D2FA72E6002555E7C04691
:101D80000022014B1A807047D82502200300010071
:101D90000F200B4A30B514880909634003409D01A8
:101DA0005B199D015B19240963409BB259400840AF
:101DB00081014018810140181B095840108030BD36
:101DC000D8250220F0B500291FD0104B00249C46D6
:101DD0000F251F88035D01341A007A402A409601BE
:101DE000921996013F0992197A4092B21B09534009
:101DF0002B409F01DB199F01DB19120953409FB251
:101E0000A3B29942E6D863461F80F0BDD8250220D0
:101E1000014B18887047C046D82502200160027126
:101E20007047C046F0B585B00CAD2F7840250AACA0
:101E300026780BAC247836036403144334434900FA
:101E4000DB032343294303ADAB709AB2002339432C
:101E5000120A6A70297001792A000068009303331E
:101E600023F0B0FB05B0F0BD002200238260C36008
:101E7000026043607047C04602604360009A019B65
:101E80008260C3607047C046002200238261C36144
:101E9000026143618260C360026043607047C04674
:101EA000E022064B12068267C3678266C36602673A
:101EB000436780234022C2527047C046FFFFEFC7EE
:101EC000012070471D2070470A4B10B504000360C5
:101ED000543000F055FBE022074B1206A267E3677F
:101EE000A266E36622676367802340222000E252F5
:101EF00010BDC046F44E1310FFFFEFC710B504002D
:101F0000034B0360543000F063F9200010BDC0465D
:101F1000F44E131010B50400054B0360543000F06C
:101F200057F9200088211EF02BFD200010BDC0466F
:101F3000F44E1310F0B5D6464F4646468246C0B51D
:101F40009AB013A806F06CFF06A8FFF78DFF0024D7
:101F5000002553460AA89A6FDB6F089409950692EC
:101F60000793FFF781FF54235344180099460A94BE
:101F70000B950C940D9500F00DFB534651469A6E4F
:101F8000DB6E086F496F1DF01AF922002B00060066
:101F90000F001DF08FF9002807D030003900002213
:101FA0003E4B1DF015F906000F0080235246D05A13
:101FB0001DF0A8F9002204000D0030003900374B55
:101FC0001DF00FF902000B00200029001DF027F979
:101FD0000022334B1DF0FCF81DF0B0F980461DF0D7
:101FE00095F90B000200390030001DF0FAF80400EA
:101FF0000EA80D00FFF738FF102206A90EA81EF04C
:10200000A9FC0C9E0D9F514680208A6EC96E000669
:102010000B180021029603970A9E0B9F049113A8A8
:102020000096019707F0E8F801220EA913A807F01F
:1020300025F948460EA900F0F3FA4346002B24DDAB
:1020400080231B062600EF180024002506A9102275
:102050000EA81EF07FFC0C9A0D9B13A8029203930E
:102060000A9A0B9B0495009201933B00320007F003
:10207000C3F801220EA913A807F000F9013448465D
:102080000EA900F0CDFAA045E0D113A807F0EAFAB6
:102090001AB0E0BCBA46B146A846F0BD0080764012
:1020A0000000F03F0B6B70B503650400886A0D00FB
:1020B0001EF090FB2323A064E164EA5C5F33E254EA
:1020C0006A6A023B686BE2521EF084FBA066E1661E
:1020D000A86B1EF07FFB20676167E86A1EF07AFB41
:1020E000A067E167E86B1EF075FBA062E162286CF7
:1020F0001EF070FBA063E163686C1EF06BFBA060D8
:10210000E160A86C1EF066FB206161612000FFF7B2
:1021100011FF012070BDC046054B10B504000360DF
:102120004068002801D01EF027FC200010BDC046EA
:10213000284F1310074B10B50400036040680028B7
:1021400001D01EF019FC200010211EF019FC200007
:1021500010BDC046284F1310054B10B50400036096
:102160004068002801D01EF007FC200010BDC046CA
:10217000384F1310074B10B5040003604068002867
:1021800001D01EF0F9FB200010211EF0F9FB200009
:1021900010BDC046384F1310054B10B50400036046
:1021A0008068002801D01EF0E7FB200010BDC0466B
:1021B000484F1310054B10B50400036080680028D9
:1021C00001D01EF0D9FB200010BDC046584F13109F
:1021D000054B10B5040003604068002801D01EF0D4
:1021E000CBFB200010BDC046684F1310074B10B545
:1021F000040003604068002801D01EF0BDFB2000F1
:1022000010211EF0BDFB200010BDC046684F13100A
:10221000F8B5C268836804000D00934206DA466888
:102220002A68591C9B00A1609A51F8BD0C4A0A33D8
:10223000C3609800934201D9012040421EF094FBF4
:1022400067680600002F07D0A268390092001EF0D0
:1022500081FB38001EF090FBA3686660E0E7C04693
:10226000FEFFFF1F074B10B50400036080680028C5
:1022700001D01EF081FB200014211EF081FB200004
:1022800010BDC046584F1310074B10B50400036033
:102290008068002801D01EF06FFB200014211EF082
:1022A0006FFB200010BDC046484F1310114B026950
:1022B00070B506000360C068002A07DD0024A30093
:1022C0001D58002D08D10134A242F8DC002801D0AD
:1022D0001EF052FB300070BD28000AF031F82800D3
:1022E0000C211EF04DFB32690134F068A242E6DC9D
:1022F000ECE7C046784F1310134B026970B5060027
:102300000360C068002A07DD0024A3001D58002DCB
:102310000CD10134A242F8DC002801D01EF02CFBC5
:10232000300018211EF02CFB300070BD28000AF090
:1023300007F828000C211EF023FB32690134F068F5
:10234000A242E2DCE8E7C046784F1310034B03607B
:10235000002343608360C3607047C046284F13105A
:10236000F8B504008068E3680D00984204DA6668F6
:10237000431CA3603554F8BD0A30E0601EF0F4FA47
:1023800067680600002F06D03900A2681EF0E2FA46
:1023900038001EF0F1FAA0686660E9E710B50400A5
:1023A0004068002803D01EF0E7FA00236360002392
:1023B000A360E36010BDC046034B0360002343608D
:1023C0008360C3607047C046384F1310F8B5C268C9
:1023D000836804000D00934205DA46685A1C9B008E
:1023E000A2609D51F8BD0C4A0A33C3609800934225
:1023F00001D9012040421EF0B7FA67680600002F9D
:1024000007D0A268390092001EF0A4FA38001EF02E
:10241000B3FAA3686660E1E7FEFFFF1F0300002038
:10242000002905DB9A68914202DA5B688900C85886
:102430007047C046002906DB83688B4203DD406895
:102440008900401870470020FCE7C046406870478C
:102450008068704710B504004068002803D01EF063
:102460008BFA002363600023A360E36010BDC046C5
:10247000044B0360044B436000238360C36003612B
:102480007047C046484F1310384F1310F8B5026913
:10249000C36804000D00934205DA86685A1C9B004D
:1024A000E2609D51F8BD0C4A0A33036198009342E3
:1024B00001D9012040421EF057FAA7680600002FFC
:1024C00007D0E268390092001EF044FA38001EF08E
:1024D00053FAE368A660E1E7FEFFFF1FF8B50400CA
:1024E000C36800690E00834202DB0A3318002361CF
:1024F0000D4B984214D880001EF036FA0660A6688C
:102500000500002E0AD0E7683100BA000430013718
:102510001EF020FA3000E7601EF02EFAA560F8BD2C
:1025200001204042E8E7C046FEFFFF1F03000020F5
:10253000002905DBDA68914202DA9B688900C858F5
:102540007047C046C068704710B504008068002816
:1025500003D01EF011FA0023A3600023E36023617F
:1025600010BDC046044B0360044B436000238360EE
:10257000C36003617047C046584F1310384F1310A3
:10258000034B0360002343608360C3607047C04611
:10259000684F131010B504004068002803D01EF0E7
:1025A000EBF9002363600023A360E36010BDC04625
:1025B000F0B50023C64600B54B60CB608B60436826
:1025C00080460E00002B28D0C468002C25DD802317
:1025D00020011B059C4201D3012040421EF0C4F99A
:1025E00007000500013C2800FFF73EFC1035013CC8
:1025F000F9D24346DB687760F36043469D68B56077
:10260000002D0ADD00245E682D01381931191022D1
:1026100010341EF09FF9A542F7D180BCB846F0BD3A
:10262000F0B5C6468468C3680600884600B59C427B
:102630000BDA4768631C24014146B3603819102245
:102640001EF088F980BCB846F0BD200080230A3017
:10265000F0601B0598421CD3012040421EF084F913
:1026600007000500093405D42800FFF7FDFB1035ED
:10267000013CF9D27468002C08D0B26821003800FF
:1026800012011EF067F920001EF076F9B468776039
:10269000D0E70001E2E7C046002906DB83688B42F1
:1026A00003DD40680901401870470020FCE7C04680
:1026B0004068704780687047054B0360054B436076
:1026C000054B83600023C360036143617047C046CC
:1026D000784F1310484F1310384F1310002906DBA2
:1026E0000369994203DAC3688900C858704700201B
:1026F000FCE7C04630B50D0085B0040001A809F024
:10270000ABFD290001A80AF0C5FB0C201EF028F93A
:1027100001A9050009F0D4FD2000694608300095A4
:10272000FFF776FD01A809F00BFE05B030BDC046ED
:102730007047C046F0B5DE46454657464E46002334
:102740000C00E0B59946914B8DB00693904B4A78BA
:102750000793904B120208938F4B09938F4B0A9368
:102760008F4B0B930B781A438B78C9781B04134358
:10277000090619438B4B180098462DF0DBF9627857
:10278000237812021A43A378E0781B04134300064F
:1027900018432DF011FA844F844B050000207B6014
:1027A0000CF026FD00282BD10CF02CFD061E29D1A3
:1027B0002379EDB21F2B05D87D4A9B00D3589F4645
:1027C00000239946434602930123019300233200DC
:1027D00000931A214B460120049703950CF016FD37
:1027E000C4B2002C08D0FD2420000DB0F0BCBB46C4
:1027F000B246A946A046F0BD38000DF053F8F3E705
:10280000FF24F1E7FE24EFE7302310269946D9E7AD
:10281000242310269946D5E724230C269946D1E790
:102820000E230E269946CDE70C230C269946C9E7C0
:102830000A230A269946C5E706AB9A4609AB5646CF
:10284000BA464746A8461D0033881A219B462B8866
:102850005A469946534604934346039301230193F2
:1028600000230120009302974B460CF0CFFC002878
:1028700000D185E06278237812021A43A378E178C8
:102880001B0413430906194338002DF053F902368F
:1028900009AB0235B342D7D1122345469946B84613
:1028A000082657466278237812021A43A378E17803
:1028B0001B0413430906404619432DF03BF981E7F9
:1028C0002423242699467DE720232026994679E76C
:1028D00016231626994675E714231426994671E7A0
:1028E0001223122699466DE710231026994669E7B0
:1028F0001A231A26994665E718231826994661E790
:102900001A230C2699465DE720230826994659E7A5
:1029100012230826994655E790239026994651E7B9
:102920008423842699464DE778237826994649E7FB
:1029300068236826994645E760236026994641E763
:102940005823582699463DE750235026994639E7A3
:1029500048234826994635E740234026994631E7E3
:102960003423342699462DE730233026994629E72B
:102970002C232C26994625E728232826994621E74B
:1029800045465E46B84657468CE7C04608000800F4
:102990000C000C0010001000120020001A0024008F
:1029A00024003000505A00203C1F01200C790020E8
:1029B000804F1310014B58887047C0463C1F0120C0
:1029C000014B18887047C0463C1F01200B0010B512
:1029D00013430ED4084B588881420ADA1B88002022
:1029E0009A4207DA0132013189B290B20CF0CAFF83
:1029F00000E0002010BDC0463C1F0120024B5A8859
:102A0000188850437047C0463C1F0120F8B5474620
:102A1000CE4680B5144B5F881B88994601239846A3
:102A20004B46002B1ED00025002F16D04346012414
:102A30009EB2A1B230000CF0A5FF431E98410134B4
:102A40002D18A742F5DA01239C46E044C845EDDD88
:102A50002800C0BCB946B046F8BD01239C46E044FE
:102A6000C145FADA0025F3E73C1F01209623002137
:102A7000012270B55B000400C15052420433C250C1
:102A800000220C33C150043BC15006000C4B0934EA
:102A9000FF342260636000240A4D1136FF36346033
:102AA000756004001934FF34226063609023064A85
:102AB0005B00C1500433C25001220433C25470BDC4
:102AC0000000F03F00005940010001000C20704759
:102AD000124B10B503609A235B000400C058002815
:102AE00001D01DF049FF20000D4BF430236009F0A8
:102AF00027FC2000E83009F023FC2000A03009F07A
:102B00001FFC20001C3009F01BFC2000103009F0D5
:102B100017FC201D09F014FC200010BDF4651310F3
:102B2000C0D2131070B50D0004001431E8300AF063
:102B3000B1F92900201D20310AF0ACF9EC23E85846
:102B40001DF010FE96235B00E05026003C3BE85849
:102B50001DF040FEF8231936FF3630607160E858EA
:102B60001DF038FEFC2320636163206461648026CD
:102B7000E8581DF02FFE7600A063E163A064E164D5
:102B8000A8591DF027FEE82320676167EB5C012050
:102B9000A35570BD1023F0B5DE464E464546574658
:102BA0009846E0B50600804485B0404652490AF098
:102BB00071F930000AF080FA002806D198235B00F2
:102BC000F258043BF3589A4237D00021404609F0AE
:102BD00079FD96235B00F35802AA137198225200E4
:102BE000B350002302AA02900500012053711DF08A
:102BF000B7FE0700FFF79CFD9A235B00F058002802
:102C000001D01DF0B9FE380002A9FFF793FD041EA4
:102C10001AD09E2200235200B350043AB350183AFF
:102C2000B350002D02D028001DF0A6FE63425C4187
:102C3000380001211DF0A4FEE0B205B0F0BCBB4697
:102C4000B246A946A046F0BD404609F0A7FB0028C1
:102C5000DFDD3800FFF7D2FE9E235B00F050380026
:102C6000FFF7D4FE9C235B00F0503800FFF7C6FE50
:102C70001DF07AFE9A235B00F05038009A46FFF769
:102C800099FE90235B00F0523800FFF799FE9122E5
:102C90009023520000B25B00B0529146F25E0023D6
:102CA0009B46002ABDDDA046340001950097002810
:102CB0001EDD5B461FB23B0000255F469B46534628
:102CC0007843E658401936182AB259460098FFF75B
:102CD0007DFE4B463070E05E0135A842EFDC0123FB
:102CE000BB469C462033FF33E25EE3449345DEDB84
:102CF0004446019D009F94E7645613109C225200A5
:102D000003008058282210B5FF329A5C002A09D0AF
:102D1000942252009A5C002A05D09E2252009B58B1
:102D2000181A013010BD902192224900595E912459
:102D300052009A5A64001B5F520089189B184B433B
:102D4000181AEFE7154B10B503609A235B000400D7
:102D5000C058002801D01DF00FFE2000104BF430A9
:102D6000236009F0EDFA2000E83009F0E9FA2000CC
:102D7000A03009F0E5FA20001C3009F0E1FA20004B
:102D8000103009F0DDFA201D09F0DAFAA421200044
:102D900049001DF0F5FD200010BDC046F46513107C
:102DA000C0D2131070B504000AF0A2F9154B00252B
:102DB00023609623012221005B00E5505242043338
:102DC000E2502600002200200C33E550043BE55081
:102DD00009310D4BFF310A604B6011360B49FF364C
:102DE0003060716021001931FF310A604B6090231F
:102DF000074A5B00E5500433E2500122043320000F
:102E0000E25470BDF46513100000F03F000059401B
:102E10000100010010B5002915DB90235B00C35EA3
:102E20008B4210DD002A0EDB91235B00C35E9342D0
:102E300009DD4B439A21490041588A18D05C431E52
:102E40009841C0B200E0002010BDC0467047C046A7
:102E50001E20704710B50400024B0360FFF74EF8C8
:102E6000200010BD1C66131010B50400044B036055
:102E7000FFF744F8200088211DF082FD200010BDDE
:102E80001C66131010B50400FFF71EF8014B20005C
:102E9000236010BD1C661310F0B54E46DE46574643
:102EA0004546E0B51F008223C35C05008946160035
:102EB0009B46B9B0002B07D1584639B0F0BCBB4691
:102EC000B246A946A046F0BD836BC46B0C930D942B
:102ED000826AC36A0E920F93DA4ADB4B1268920041
:102EE000D0581CF013FA80230A001B069C460100F0
:102EF00014000891099264440022D44B0A900C9863
:102F00000D990B941CF08BF9AA68EB68049005915D
:102F1000300039001CF05CF9049A059B1CF04FF955
:102F20000022CB4B1CF054F90022CA4B1CF077F95D
:102F30000022C84B1CF043F90022109011910E980A
:102F40000F99C24B1CF06BF92A696B6906000F00E0
:102F500042984399069607971CF03AF932003B00D5
:102F60001CF02DF90022BC4B1CF032F9089E099F81
:102F700032003B001CF053F932003B001CF01FF9FB
:102F8000129013911DA805F04BFFAE6CEF6C002260
:102F90000023300039001CF085F9002800D13FE201
:102FA0000A9A0B9B01240092019302940022AB4BDE
:102FB0001DA805F0B5FF109E119F802000068446D5
:102FC00032003900129E139F02943C006144644415
:102FD0000B0030002100009001911DA806F00EF8B2
:102FE0004B46022B00D078E19D4B98461B68002B86
:102FF00000D16EE124AC2500260038AF3000103639
:10300000FEF732FFBE42F9D10C980D990023002241
:1030100024922593A260E360A261E361226363636B
:1030200022646364A264E36420616161052220621A
:1030300061620E980F99A062E162A063E1632100D2
:103040001DA806F01BF926696769E02230003900E7
:10305000844B12061A961B971CF042F9002800D1E7
:10306000E8E1390030001CF0DDF9071CA269E369D2
:103070001000E022190012067A4B189019911CF0EA
:103080002FF9002800D1D3E1189819991CF0CAF93A
:10309000061C381C226A636A0C920D931DF09AFB81
:1030A00002000B000C980D991CF01AF9002804D0AE
:1030B0000C980D991CF0B6F9071C301CA26AE36A43
:1030C0000E920F931DF086FB02000B000E980F99D5
:1030D0001CF006F9002804D00E980F991CF0A2F9F4
:1030E000061C381C226B636B149215931DF072FB47
:1030F00002000B00149815991CF0F2F8002804D077
:10310000149815991CF08EF9071C301CA26BE36B08
:10311000169217931DF05EFB02000B00169817998C
:103120001CF0DEF8002804D0169817991CF07AF9E4
:10313000061C381C226C636C069207931DF04AFB38
:1031400002000B0004900591069807991CF0C8F83E
:10315000002807D0069807991CF064F91DF03AFB87
:1031600004900591A26CE36C301C0A920B931DF045
:1031700031FB06000F0002000B000A980B991CF0AF
:10318000AFF8002807D00A980B991CF04BF91DF0F6
:1031900021FB06000F001098119900222D4B1CF006
:1031A00020F800222B4B1CF03AF8049A059B1CF0E7
:1031B0000FF80022274B1CF00BF8089A099B04908B
:1031C0000591129813991CF00CF8089A099B1CF0B1
:1031D00026F832003B001BF0FBFF089A099B1BF00E
:1031E000F7FF049A059B0F000600249825991BF011
:1031F000E6FF3B00320024902591A068E1681BF0B7
:10320000DEFF049A059BA060E1601A981B991BF0F1
:10321000D6FF3B00206161611898199932001BF0BC
:10322000CEFF049A059BA061E1610C980D991BF0FB
:10323000C6FF3B00206261620E980F9932001BF0BE
:10324000BEFF11E09C5800200C4F13100000E03F1F
:1032500000003E4000804F4000002E4000804FC0E4
:10326000B48C0120FFFFEFC7049A059BA062E162C6
:10327000149815991BF0A3FF3B0020636163169817
:10328000179932001BF09BFF049A059BA063E16332
:10329000069807991BF093FF3B00206461640A982D
:1032A0000B9932001BF08BFF4746A064E164403469
:1032B000A869E9691CF042F80600286969691CF0F0
:1032C0003DF8103501003200386808F0F5F8A542E5
:1032D000EED11DA806F0C6F9EEE554239A46AA449D
:1032E0005046FFF7E7F9070014201DF039FB804630
:1032F00007F01EFB10201DF033FB0400FEF7B4FDA9
:1033000000220023210022606360A260E360404647
:1033100007F050FC002200232260636000224A4B29
:103320002100A260E360404607F044FC0022474BC6
:10333000286D226063601DF04DFA0022444B1BF0A3
:103340006EFFA060E1602100404607F033FC0026DC
:10335000002F31DD2B004546984631005046FFF7DF
:103360009BF91022010020001DF0F4FA0498059941
:103370000022354B1BF02CFF02000B002068616817
:103380001BF026FF002220606160069807992E4BF3
:103390001BF01EFF02000B00A068E1681BF018FF85
:1033A0000136A060E1602100280007F003FCB7426D
:1033B000D3D14346A8461D00002200260027224BF9
:1033C0002100A260E36040462660676007F0F2FBE0
:1033D0002100404626606760A660E76007F0EAFBD0
:1033E0001021200024AC1DF0CBFA200006F0E0FFF5
:1033F0004146200006F0F4FF4B46012B1CD0102B59
:103400000AD1449B002B07D01DA9200007F0EEFA3B
:103410002100449807F04AFA200007F035FDE3E563
:103420000123320000931DA83B0005F0ABFEB7E579
:10343000084E2EE6074F19E684232000EA581DA9FE
:1034400007F020FAE8E7C0460000F03F0040554092
:1034500000002440FFFF7FFF030030B5010000247F
:103460000022094D1933FF331C605D602131074B89
:10347000FF310A604B608A60CB60DC230222C252BB
:103480005433013AC25430BD000039400000F03FCF
:103490001420704770B506008036326873680A6081
:1034A0004B60030088331C685D6808331A685B68EA
:1034B0008C60CD600A614B618C61CD610A624B62A8
:1034C000983034687568026843680C634D638A629B
:1034D000CB628A63CB6370BD70B504000D00E83029
:1034E000143109F0D7FC2900200020311C3009F0EC
:1034F000D1FC2900201D343109F0CCFC86232600A4
:103500005B00E8581DF066F9FC231136FF36306089
:1035100071608026EA5C1E3BE2541F33EA5C760051
:103520001D3BE254AB595A1E934198225200A354BA
:103530008C235B00E8581DF04DF98E235B0020635F
:10354000616320646164E8581DF044F98A235B00DC
:10355000A063E163A064E164E8581DF03BF98823AF
:103560005B0020666166A066E166E8581DF032F9EE
:1035700092235B0020656165A065E165E8581DF058
:1035800029F9FE2320676167EB5CA35590235B005C
:10359000E8581DF01FF91934FF34206061600120E4
:1035A00070BDC04610B5040003F092F80C4B00202B
:1035B000236023000B491933FF3318605960210041
:1035C0000022094B2131FF310A604B608A60CB60D9
:1035D000DC230222E2525433013A2000E25410BDAF
:1035E00040661310000039400000F03FF0B5DE46A1
:1035F00057464E464546E0B5D7B012921393802306
:1036000010915B00C35C82469B46002B09D10023CE
:103610009B46584657B0F0BCBB46B246A946A046AA
:10362000F0BD04001C34210031A808F049FE334BE2
:10363000210099461868083009F036FB4B461B6894
:10364000002B00D173E32E4A2E4B12689200D05803
:103650001BF05CFE2C4B1A901B9118681BF056FE59
:1036600010235344269027911800089308F096FEE3
:1036700080230A909B05984201D300F059FD041E57
:1036800001D100F029FD830018001E002D931DF0CC
:1036900067F905003200002122901DF055F929003C
:1036A000B4468023614422000F91013C5B059A429D
:1036B00001D200F034FD012040421DF055F9239065
:1036C0000134E200239C002120001DF03DF9534607
:1036D0002133FF331A685B6800200C491BF081FD21
:1036E000A04600230024069307945B46002714900D
:1036F0001591229E4CAC169324E0C046908901207F
:103700009C5800200C4F13101C4F13100000F03F6A
:10371000186A1DF05FF8149A159B1BF080FD0B00D2
:10372000020041460A604B60069807991BF050FD65
:1037300008239C460A9B0137069007910436E04413
:10374000BB4265D04B461B68390008989B4608F081
:103750007DFF5346E3220500985C1CF0DCFF2A0045
:10376000031C5946200006F077FA28201DF0F8F8CF
:103770000500210007F022FB236A2B62A38CAB8497
:10378000336835609B46002B06D0180007F07CFBA1
:10379000282158461DF0F4F8200007F075FB336827
:1037A000002BB5D15346E322985C1CF0B4FF4A4687
:1037B000031C11682000202206F04EFA28201DF07C
:1037C000CFF80500210007F0F9FA236A2B62A38CD9
:1037D000AB84336835609B46002B06D0180007F099
:1037E00053FB282158461DF0CBF8200007F04CFB76
:1037F0003368002B8CD14146002300220A604B60C5
:1038000008239C460A9B01370436E044BB4299D109
:1038100006980799169B00229B46E64B1BF0FFFC7F
:1038200006000F0088235B0053441C685D6800227B
:103830002C932000E04B29001BF0D3FC5346193396
:10384000FF331690179118685968982352465B0009
:10385000D35C002B00D088E322002B001BF0AFFCD0
:1038600020902191D54AD64B1BF0D9FC04000D00C5
:103870001698179932003B001E941F951BF0CFFC41
:1038800022002B001BF0ADFCDC2352460690079172
:10389000D35A012B00D1C3E2022B00D1BCE200239A
:1038A000C44C089309941298139953461A6B5B6B96
:1038B0001BF08EFC1A9C1B9D22002B001BF0AFFC02
:1038C0005346289029919A6BDB6B609861991BF0A5
:1038D0007FFC2B0022001BF0A2FC109B2A902B9156
:1038E000022B00D108E1169A179B200029001BF03B
:1038F00096FC802704000D0045AB18003F06984653
:10390000129305F08DFA149A159B2000E9191BF00B
:1039100086FC012602000B000094019540460296A9
:1039200005F0FEFA1A9A1B9B2098219902961BF02B
:1039300076FC00240025020014901591159940464C
:10394000CB190092019322002B0005F057FB2200B7
:103950002B00404600940195029605F04FFB220093
:103960002B0040460294039500940195049605F0BF
:1039700043FCDE235246D35C002B01D000F0C3FB96
:103980005146802501240A6F129E496F2D064B195E
:103990003000009405F0F6FB2A9A2B9B3000009231
:1039A0000193289A299B029405F028FB1A9A1B9BE5
:1039B000269827991BF015FC149015910200002001
:1039C000159902944B197F4900900191300005F040
:1039D000A7FA0A9B002B00D18BE0109B012B00D192
:1039E000EBE2229B5A469846239B002499460023EB
:1039F00000259B46249243461B68002B6AD04B4609
:103A000000221E685F68704B300039001BF007FC15
:103A1000169A179B1BF003FC1E9A1F9B1BF0E1FBE1
:103A2000089A099B149015911BF0D2FB32003B00C1
:103A30000890099116981799049405950294039596
:103A40001BF0EDFB1A9A1B9B1BF0E9FB5F4B00225E
:103A50001BF0E5FB129E0090019101223000022133
:103A600005F010FA0899099A13008022120694466C
:103A700063441C911D931C9A1D9B0321009201938A
:103A8000300003224CAE049405950294039505F092
:103A9000F9F9300006F08CFC43463000196807F055
:103AA000A1F9109B102B0AD1629B002B07D0129911
:103AB000300006F09BFF3100629806F0F7FE089890
:103AC0000999149A159B1BF083FB0890099130000B
:103AD00007F0DAF901239C460333E3449C460433A0
:103AE000E0449C460A9BE1445B4500D083E7249B6D
:103AF0009B46129805F0B6FD354D2B68002B00D182
:103B000063E145AB1800129305F08AF9DE235246B3
:103B1000D35C002B00D0D3E25146802001240A6FF1
:103B2000496F00060B18129900940800884605F0AA
:103B300029FB289E299F320080263606B44639008C
:103B40002A9E2B9F61440B004046009601970294E9
:103B500005F054FA1A9E1B9F00233200404600963F
:103B6000019702933B0005F0DBF926982799320074
:103B70003B001BF036FB020000200B0011490294B1
:103B800000900191404605F0CBF9069E079F002268
:103B90000023300039001BF0A3FB00281AD180203D
:103BA000000639008446614432000B0006920793F8
:103BB00010E0C046008066400000184097D17E5A51
:103BC000FB2109400000F0BF008056400000E03FAC
:103BD000B48C0120209A219B2C9E4CAC30687168DB
:103BE0001BF0EDFA10901191200005F019F90899D9
:103BF000099A130080221206944663440B93002313
:103C00000A91200000930A9A0B9B05F0BBFA41A889
:103C1000FEF7B6FC109811992C9ED84F3268736845
:103C20001BF0CDFA002300900191002234A8FEF78A
:103C300023F9102234A938A81CF08CFE01222000A0
:103C400038A905F01BFB38A941A8FEF7E9FC32684A
:103C50007368369837991BF0BBFA1022369037916B
:103C600034A938A81CF076FE0122200038A905F0FE
:103C700005FB38A941A8FEF7D3FC98235B009846C2
:103C80005B460026AB46554610930023AA4699464C
:103C900032E080231B069C46BC4463460C960D9381
:103CA0000C980D99089A099B1BF089FA0B0049465C
:103CB00002000091200005F065FA102234A938A80E
:103CC0001CF048FE0122200038A905F0D7FA38A9D7
:103CD00041A8FEF7A5FC002230003900A84B1BF0DC
:103CE00077FA06000F0002000B00069807991BF0F8
:103CF000E7FA002800D0FBE0069A079B3000390065
:103D00001BF0D8FA002800D193E0200005F098F8C5
:103D1000534642469D5C002DBBD1089A099B30005A
:103D200039001BF04CFA009502000B00C2E731A8E5
:103D300008F006FB6BE4200005F082F80023200069
:103D400000930A9A0B9B05F01DFA200034A901226A
:103D500005F094FA34A941A84D46FEF761FC41A84C
:103D6000FEF7A8FC814641A8FEF7A2FC4A460600E1
:103D70000100129805F082FA012398464B4610364E
:103D8000012B19DD22002B004C46454691469846F2
:103D9000B068F1681BF0D2FA0700306871681BF058
:103DA000CDFA434601003A001868013507F084FB5C
:103DB0001036AC42ECD14C4641A8FEF709FA20007F
:103DC00005F050FC129805F04DFC23981CF0D4FD32
:103DD000229A0F9B140093420DD02568002D16D017
:103DE000280007F051F8282128001CF0C9FD0F9B7E
:103DF00004349C42F1D1229B002B03D018002D9952
:103E00001CF0BEFD31A808F09BFAFFF702FC0F9BE7
:103E10000434A342E1D1EEE700225A4B1BF0FFF934
:103E200002000B00002058491BF0C9F908900991C5
:103E300039E5109B5D4600229B4630000023390087
:103E40001BF04EFA98235B009846002887D0A946BD
:103E500039E080231B069C46BC44634618961993A0
:103E600018981999089A099B1BF0A9F90B000021D1
:103E700002000091200005F085F9102234A93CA829
:103E80001CF068FD012220003CA905F0F7F93CA9CF
:103E900041A8FEF7C5FB002230003900384B1BF06B
:103EA0008EF90022002306000F001BF003FA002801
:103EB00000D040E700220023300039001BF010FA48
:103EC000002800D132E1200004F0BAFF53464246F8
:103ED0009D5C002DBDD1089A099B300039001BF074
:103EE0006EF9009502000B00200005F04BF9C4E7C5
:103EF000200004F0A5FF982355465B00EE5C002EE1
:103F000044D1089A099B069807991BF058F9009626
:103F100002000B00200005F035F9102234A938A862
:103F20001CF018FD0122200038A905F0A7F938A9D6
:103F300041A8FEF775FB102234A938A81CF00AFD31
:103F40000122200038A905F099F938A941A8FEF707
:103F500067FB369837992C9B1A685B681BF02FF922
:103F6000069E079F369037918FE602000B002000D7
:103F700029001BF024F92090219173E40000F03F08
:103F8000000024400000E03F008066400699079A48
:103F9000130080221206944663442F932E91089AB0
:103FA000099B2E982F991BF00AF90B0000210200A3
:103FB0000091200005F0E6F8AFE7229B52469846B4
:103FC000239B002499460023CA4600259946149253
:103FD00043461B68002B64D053461A685B68100088
:103FE00019000022544B109011911BF018F9169AE9
:103FF000179B1BF014F91E9A1F9B1BF0F2F8089AEE
:10400000099B06000F00089609971BF0E1F8169A25
:10401000179B06000F0010981199049405950294BF
:1040200003951BF0FCF81A9A1B9B1BF0F8F8434B06
:1040300000221BF0F4F80122009001910221129855
:1040400004F020FF80231B069C46BC446346249654
:104050002593249A259B0321009201931298032211
:10406000049405950294039504F00CFF4CAB1800E2
:1040700006F09EF9434619684CAB180006F0B2FEF4
:104080004CAB18000022129906F0FCFB0898099925
:1040900032003B001BF09CF8089009914CA806F0F8
:1040A000F3FE01239C460333E1449C460433E04481
:1040B0009C460A9BE2444B458AD1149B9A4618E5DC
:1040C0000023002202931E4B1298009201930022BB
:1040D0001C4B04F025FF1FE500201CF045FC534657
:1040E0002133FF3323901A685B68002014491BF0CA
:1040F00078F8002300260027149015912D93229321
:104100000F93FFF78FFB104A104B12980092019308
:1041100002960F4A0F4B04F003FFFFF731FC0A9B96
:10412000D8001CF021FC2390FFF7CAFA4D4616E692
:10413000094821F073FBC046008056400000E03F74
:104140000000F03F0000F0BFD7A3703D0AD7E33F67
:10415000CDCCCCCCCCCCF4BF005013100D2070478C
:10416000A02301225B00C2540022034B1930FF3010
:10417000026043607047C0460000F03F10B5040085
:10418000024B0360FEF7A4FC200010BD6466131010
:10419000064B10B503600400FEF79AFCB021200026
:1041A00049001CF0EDFB200010BDC04664661310F2
:1041B00010B50400FEF7F6FD074B01222360A02393
:1041C0005B00E2542300002004491933FF331860D8
:1041D0005960200010BDC046646613100000F03F17
:1041E000F0B5DE464E46454657460300E0B5493336
:1041F000FF331C685D68403B97B01A685B68824675
:104200008B46200029001BF00AF802000B0020005A
:104210002900009201931AF0D2FF314B00221AF0CC
:10422000FEFF02AB984616AB04000D0099464646C9
:1042300030001036FDF718FE4E45F9D15146513188
:10424000FF31002208684968254B1AF0E8FF020098
:104250000B00200029001AF0B2FF0F00514659311F
:10426000FF3106000868496800221D4B1AF0D7FF8D
:1042700002000B00200029001AF0A1FF04000D002D
:104280000098019932003B0004940595029603972B
:104290001AF09EFF22002B00069007910A900B91C6
:1042A00000980199089409951AF092FF14941595B5
:1042B00044465D460C900D910E960F97109011910B
:1042C0001296139721002800103406F073FC4C4519
:1042D000F8D117B0F0BCBB46B246A946A046F0BD27
:1042E0000000E03FF0B5DE464E4645465746E0B595
:1042F00082469BB01420894693461CF031FB06ACE5
:104300008046260006F014FB1AAD30001036FDF78B
:10431000ABFDAE42F9D153465133FF331E685F689F
:104320008023BC461B066344300019000022604B0A
:10433000029603971AF073FF53465933FF330090E8
:10434000019119685A68802394460E0017001B06D5
:104350006344080000221900554B049605971AF093
:104360005EFF009A019B06000F00029803990692D7
:104370000793089609971AF02BFF32003B000A902A
:104380000B910E900F91049805990C960D971AF0C9
:104390001FFF009A019B189619974746109011919C
:1043A00012921393149015911692179306AE310042
:1043B0003800103606F0FEFBAE42F8D13900484610
:1043C00006F00EF8564614201CF0CAFA493680460C
:1043D000FF3606F0ADFA58461AF094FF326873685B
:1043E0001AF01DFF06000F0002000B000698079947
:1043F0001AF0E5FE32003B000690079108980999F3
:104400001AF0DDFE32003B00089009910A980B99E2
:104410001AF0DEFE32003B000A900B910C980D99C9
:104420001AF0CDFE32003B000C900D910E980F99C2
:104430001AF0CEFE32003B000E900F9110981199A9
:104440001AF0C6FE32003B00109011911298139999
:104450001AF0B5FE32003B00129013911498159992
:104460001AF0B6FE32003B00149015911698179979
:104470001AF0A5FE320016901791189819993B0072
:104480001AF09DFE46461890199121003000103414
:1044900006F090FBAC42F8D13100484605F0A0FF91
:1044A0001BB0F0BCBB46B246A946A046F0BDC04614
:1044B0000000E03F10B50400FEF720FC4223FF336C
:1044C000E35C002B00D0400010BDC04610B5FEF7E5
:1044D00029FB10BDF0B5DE4657464E464546E0B5D1
:1044E000D5B006920793CC4ACC4B12688246920014
:1044F000D05808911AF00AFF0022C94B0490059188
:104500001AF06FFE912352460A900B915B00D05E29
:104510001AF0FCFE902352465B000600D05E0F00AE
:104520001AF0F4FE932352460E900F915B00D35C79
:10453000002B00D1B4E253461933FF331C685D6889
:1045400002000B00200029001AF069FE0B00A821D0
:104550000200490051440A604B60894651460C9262
:104560000D930A664B6620003B00320029001AF0CA
:1045700056FEAC2306000F005B0053441E605F60D4
:10458000109353461E655F6506980799A4235B0048
:1045900053441C605D609B4653461A6B5B6B1AF07C
:1045A00017FE002204000D000C980D999D4B1AF087
:1045B00036FE02000B00200029001AF000FE002247
:1045C000994B1AF005FE0022954B1AF028FE53462F
:1045D000069007919A6BDB6B5E985F991AF0F8FD75
:1045E00032003B001AF0EBFD0022904B1AF0F0FD78
:1045F000049A059B1AF013FE320004000D00049883
:1046000005993B001AF00BFE02000B002000290068
:104610001AF0DEFD060013A80F0004F001FC53465B
:1046200000221C6F5D6F0023200029001AF03AFE63
:10463000002800D16AE20A980B99012400227C4BE1
:1046400002941AF0ECFD002200900191784B13A81F
:1046500004F066FC802000068446069913A80A0030
:1046600007990096019761440B00029404F0C6FC80
:104670000022704B13A80092019302946E4B00220B
:1046800004F04EFC13A91AA804F0ACFF089B022BFF
:1046900000D1DBE0902352465B00D35E5246049388
:1046A00091235B00D45A2823FF33D35C002B00D125
:1046B00047E294235B00D35C002B00D043E29223BB
:1046C0005B00D35A049A5E429A1812B21C1936B291
:1046D0000492A4B228A805F06BFE30A805F068FE8D
:1046E00014201CF03DF9050006F022F9290050467F
:1046F000FFF776FD290028A805F072FE089B013C13
:10470000009300224C4B30A928A806F011FD23B2DB
:10471000A7B2B34200DA93E0049ABF19B24200DCB8
:104720008EE04A463400D9460A960E9711920E9AA8
:104730009DB2521B12B29046A34606930C95424678
:1047400059465046FEF766FB28225346FF329B5CD3
:10475000834252D038A805F02BFE40A805F028FE71
:1047600040A930A806F0AAFA21A804F059FB4B464C
:1047700058461E685F681AF0C9FD32003B001AF007
:104780004EFD0023040006980D0002931AF0BEFDB2
:1047900032003B001AF043FD22002B0000900191F3
:1047A00021A804F02BFC40A805F014FE0024051EEF
:1047B00009DD210040A805F019FE013421A906F009
:1047C000C1F8A542F5D121A804F04CFF089B012BAC
:1047D00000D195E1102B0AD1609B002B07D013A9C3
:1047E00040A806F003F9609840A906F05FF840A8D9
:1047F00006F04AFB38A806F047FB5B4601331BB2C4
:104800009B46049B9B459AD10C9D0A9A013D2BB275
:10481000934213DB14008AE79C5800200C4F1310BE
:1048200000804F400000E03F00003E4000002E406E
:1048300000804FC00000F0BF0000F03F119B994680
:1048400030A806F021FB28A806F01EFBD54F3B68D8
:10485000002B00D116E1012300220293D24B1AA8AB
:1048600000920193D14B002204F05AFB40AB9846D2
:104870001C001E0054AD20001034FDF7F5FAAC42C8
:10488000F9D14B461C685D68109BB2461A685B689C
:10489000100019000022C64B089009911AF0BFFCC5
:1048A00022002B000490059100200021069407951A
:1048B0001AF085FC02000B0000200A920B93409234
:1048C0004193049A059B00211AF079FC43460400A9
:1048D0000D00069807999C60DD6002000B001AF03D
:1048E0006EFC4346186159619C61DD611862596232
:1048F000049A059B089809991AF061FC46464346BC
:104900009862D9620A9A0B9BB063F1633263736356
:104910003264736441460522B464F5641AA804F055
:10492000ADFC409C419DE02220002900A14B1206D5
:104930000C940D951AF0D4FC002800D0DAE09E4CBF
:1049400043461A695B6915001E00201C08950996EC
:104950001BF040FF2A0033001AF0ACFC002804D002
:10496000280031001AF05EFD041C43461A6A5B6A97
:1049700015001E00201C049505961BF02BFF02005D
:104980000B00280031001AF0ABFC002804D02800EE
:1049900031001AF047FD041C43461A6B5B6B15008F
:1049A0001E00201C069507961BF014FF02000B004A
:1049B000280031001AF094FC002804D028003100AF
:1049C0001AF030FD041C43461A6C5B6C15001E0087
:1049D000201C0A950B961BF0FDFE02000B00280020
:1049E00031001AF07DFC002804D0280031001AF0B4
:1049F00019FD041C211C201C1BF024FE1BF0EAFEE8
:104A000004000D0002000B000C980D991AF0D7FB62
:104A100022002B0040904191089809991AF0CFFB91
:104A20004346220018615961049805992B001AF039
:104A3000C6FB4346220018625962069807992B006C
:104A40001AF0BDFB43462200186359630A980B997C
:104A50002B001AF0B4FB434644465646186459648A
:104A60004034B069F1691AF069FC05003069716978
:104A70001AF064FC103601002A00386806F01CFDAC
:104A8000A642EED11AA804F0EDFD13A804F0EAFD49
:104A9000012055B0F0BCBB46B246A946A046F0BDC9
:104AA000A823146E556E5B0053441C605D60320099
:104AB0002000290099463B000C940D951AF0AFFB9D
:104AC0000E9A0F9B1AF08DFB534606000F001E65D1
:104AD0005F659E65DF65AC235B00534420002900C1
:104AE0001E605F6010930E9A0F9B1AF07AFB040011
:104AF0000D0049E5200029001AF094FC041C1FE772
:104B0000012213A940A805F0BDFE70E68021090628
:104B10006B1801212200009113A804F033FB8AE5F1
:104B200042235246FF33D35C002B34D1002240464F
:104B300013A905F0A7FE404606F0A6F938A806F02E
:104B4000A3F90026C6E538A805F032FC92235246A8
:104B50005B00D25A38A95046FFF7C4FB40AB9846D9
:104B6000180005F025FC089D002241460E4B0095DB
:104B700038A806F0DDFA012DD2D0102DDBD1609BD4
:104B8000002BD8D013A9404605F030FF414660986D
:104B900005F08CFECFE7002213A938A805F072FEBD
:104BA000C4E7C046B48C01200000F03F0000F0BF15
:104BB0000000E03FFFFFEFC7FFFF7FFF70B504007D
:104BC00080204000205C84B0002808D0089D099E09
:104BD0000A980095019602902000FFF77BFC04B034
:104BE00070BDC0461120704710B503F0F1FF10BD35
:104BF00010B5040004F0EAF8034B2000236003F032
:104C0000E7FF200010BDC04690661310F0B54E4679
:104C100057464546DE46E0B51F008023C35C0400CE
:104C2000894616009846B9B0002B07D1404639B0E6
:104C3000F0BCBB46B246A946A046F0BDD94ADA4B05
:104C400012689200D0581AF061FBA26BE36B0A90D5
:104C50000B910C920D93A26AE36A0E920F930B00D4
:104C6000802109068C46634439000890099330007E
:104C7000A26DE36D1AF0ACFA0022CC4B1AF0CFFA19
:104C80000022CA4B1AF09BFA226E636E06900791BF
:104C9000429843991AF09CFA0A9A0B9B1AF0BFFAB1
:104CA000049005911DA804F0BBF8A66CE76C0022E7
:104CB0000023300039001AF0F5FA002800D161E233
:104CC000089A099B0125009201931DA80022B84B68
:104CD000029504F025F9069E079F80200006844671
:104CE00039003200049E61443000059E0B0066448A
:104CF0003100002700260090019102951DA804F0C4
:104D00007DF9A06CE16C32003B001AF0CBFA002870
:104D100000D1F7E14B46022B00D075E1A54B9B4635
:104D20001B68002B00D16BE124AF3E003C0038AD86
:104D300020001034FDF798F8AC42F9D10C980D9989
:104D40000023002224922593BA60FB60BA61FB61C4
:104D50003A637B633A647B64BA64FB64386179616B
:104D60000522386279620E980F99B862F962B863C9
:104D7000F96339001DA804F081FA3C697D69E022DD
:104D8000200029008C4B12061A941B951AF0A8FAE1
:104D9000002800D101E2200029001AF043FB041C86
:104DA000BA69FB691000E02219001206824B1890C4
:104DB00019911AF095FA002800D1EBE11898199989
:104DC0001AF030FB81463A6A7B6A201C0E920F93E0
:104DD0001BF000FD02000B000E980F991AF080FAEC
:104DE000002804D00E980F991AF01CFB041C4846AA
:104DF000BA6AFB6A109211931BF0ECFC02000B00E4
:104E0000109811991AF06CFA002804D01098119992
:104E10001AF008FB81463A6B7B6B201C12921393AD
:104E20001BF0D8FC02000B00129813991AF058FAE4
:104E3000002804D0129813991AF0F4FA041C48467A
:104E4000BA6BFB6B149215931BF0C4FC02000B00B1
:104E5000149815991AF044FA002804D0149815995A
:104E60001AF0E0FA81463A6C7B6C201C0892099398
:104E70001BF0B0FC04000D0002000B00089809991B
:104E80001AF02EFA002807D0089809991AF0CAFAE1
:104E90001BF0A0FC04000D00BA6CFB6C48460C92A1
:104EA0000D931BF097FC02000B00169017910C98C5
:104EB0000D991AF015FA002807D00C980D991AF0E0
:104EC000B1FA1BF087FC16901791069807990022FB
:104ED000364B1AF086F90022344B1AF0A0F9220062
:104EE0002B001AF075F90022304B1AF071F90A9C68
:104EF0000B9D069007910498059922002B001AF04B
:104F000070F922002B001AF08AF9169A179B1AF0F2
:104F10005FF922002B001AF05BF9069A079B0D003F
:104F20000400249825991AF04AF92B0022002490B5
:104F30002591B868F9681AF042F9069A079BB8609B
:104F4000F9601A981B991AF03AF92B0038617961C7
:104F50001898199922001AF032F9069A079BB8613D
:104F6000F9610E980F991AF02AF92B0038627962CC
:104F70001098119922001AF022F9069A079BB8623C
:104F8000F962129813991AF01AF92B0038637963B1
:104F90001498159922001AF012F9069A079BB86323
:104FA000F9630BE09C5800200C4F131000804F4019
:104FB00000804FC0B48C0120FFFFEFC7089809990B
:104FC0001AF0FDF82B00386479640C980D992200D2
:104FD0001AF0F5F83D00B864F9645F464035B069F1
:104FE000F1691AF0ABF90400306971691AF0A6F999
:104FF000103601002200386806F05EFAAE42EED1AB
:105000001DA804F02FFB11E614201BF0A9FC834619
:1050100005F08EFC20201BF0A7FC0500FCF724FF08
:1050200010239A4600270026AA445046FCF71CFF8E
:10503000290058462E606F60AE60EF6005F0BAFD43
:1050400000225A4B5146AA61EB6158462E616F61AE
:1050500005F0B0FD0022564B206D2A606B601BF0FE
:10506000B9FB0022534B1AF0DAF8A860E960290076
:10507000584605F09FFDA06BE16B00224B4BAE61E3
:10508000EF612A606B60AE60EF601AF0A1F82861F2
:1050900069612900584605F08DFD5146584605F0D6
:1050A00089FD0022414B2900AA60EB6058462E6022
:1050B0006F6005F07FFD514658462E616F61AE610D
:1050C000EF6124AF05F076FD380005F071F959461F
:1050D000380005F085F94B46012B60D0102B0AD122
:1050E000449B002B07D01DA9380005F07FFC390038
:1050F000449805F0DBFB28001BF03EFC380005F06F
:10510000C3FE0BE610301BF02BFC82460096019785
:10511000264B0022FCF7B0FE51461DA8012204F0E8
:10512000ADF80698079953461A685B681AF050F86C
:105130000022214B1AF04CF85346069007919A68CA
:10514000DB68049805991AF043F880220F001206D4
:10515000944602953D000600069B65441800079B97
:105160003200634419002B000092019302000B00EF
:105170001DA80496059703F041FF102150461BF02F
:10518000FFFBC7E50123320000931DA83B0003F09D
:10519000F9FF95E5094B994615E6084C00E684238E
:1051A0003800E2581DA905F06DFBA4E70000F03FB0
:1051B000000053400000244000804F40FFFF7FFF6D
:1051C00013207047A0230022C254704710B504007A
:1051D000024B036004F0A2FF200010BDA86613106C
:1051E00010B50400044B036004F098FF2000A821D0
:1051F0001BF0C6FB200010BDA866131010B50400FC
:1052000004F0E2FD034B00222360A0232000E254BF
:1052100010BDC046A8661310F0B54E46DE46574690
:105220004546E0B51F009923C35C0500894616007A
:105230009B46C1B0002B07D1584641B0F0BCBB46DD
:10524000B246A946A046F0BDDA4ADB4B126892008E
:10525000D0581AF05BF803000C00A96BEA6B0C91B4
:105260000D92A96AEA6A0E910F9219002200089124
:1052700009920C980D998022120694460A932300F5
:10528000634400220B93CD4B19F0C9FFAA68EB6869
:10529000049005913000390019F09AFF049A059B9B
:1052A00019F08DFF0022C64B19F092FF0022C54B6A
:1052B00019F0B5FF0022C34B19F081FF00221090B6
:1052C00011910E980F99BD4B19F0A9FF2A696B69CE
:1052D00006000F004A984B990696079719F078FF39
:1052E00032003B0019F06BFF0022B74B19F070FF42
:1052F000089E099F32003B0019F091FF32003B00ED
:1053000019F05DFF129013911DA803F089FDAE6C9A
:10531000EF6C002200233000390019F0C3FF002891
:1053200000D14FE20A9A0B9B012400920193029450
:105330000022A64B1DA803F0F3FD109E119F8020B4
:105340000006844632003900129E139F02943C00EE
:10535000614464440B0030002100009001911DA8BD
:1053600003F04CFE4B46022B00D078E1984B984658
:105370001B68002B00D16EE12CAC2500260040AF4D
:1053800030001036FCF770FDBE42F9D10C980D9933
:10539000002300222C922D93A260E360A261E361BE
:1053A0002263636322646364A264E36420616161D5
:1053B0000522206261620E980F99A062E162A063EB
:1053C000E16321001DA803F059FF26696769E02207
:1053D000300039007F4B12061A961B9719F080FF98
:1053E000002800D1F8E1390030001AF01BF8071C42
:1053F000A269E3691000E02219001206754B1890AB
:10540000199119F06DFF002800D1E3E1189819995E
:105410001AF008F8061C381C226A636A0C920D9375
:105420001BF0D8F902000B000C980D9919F058FFE9
:10543000002804D00C980D9919F0F4FF071C301CBB
:10544000A26AE36A0E920F931BF0C4F902000B00EC
:105450000E980F9919F044FF002804D00E980F9968
:1054600019F0E0FF061C381C226B636B1492159335
:105470001BF0B0F902000B001498159919F030FFD9
:10548000002804D01498159919F0CCFF071C301C83
:10549000A26BE36B169217931BF09CF902000B00B2
:1054A0001698179919F01CFF002804D01698179920
:1054B00019F0B8FF061C381C226C636C0692079327
:1054C0001BF088F902000B000490059106980799DB
:1054D00019F006FF002807D00698079919F0A2FFD7
:1054E0001BF078F904900591A26CE36C301C0A92D1
:1054F0000B931BF06FF906000F0002000B000A98D7
:105500000B9919F0EDFE002807D00A980B9919F0B5
:1055100089FF1BF05FF906000F0010981199002217
:10552000284B19F05EFE0022264B19F078FE049AF3
:10553000059B19F04DFE0022224B19F049FE089AF6
:10554000099B049005911298139919F04AFE089A44
:10555000099B19F064FE32003B0019F039FE089AED
:10556000099B19F035FE049A059B0F0006002C9844
:105570002D9919F024FE3B0032002C902D91A0684B
:10558000E16819F01CFE049A059BA060E1601A987E
:105590001B9919F014FE3B0020616161189819995C
:1055A000320019F00CFE049A059BA061E1610C9891
:1055B0000D9911E09C5800200C4F13100000E03FA3
:1055C00000003E4000804F4000002E4000804FC051
:1055D000B48C0120FFFFEFC719F0F1FD3B00206202
:1055E00061620E980F99320019F0E9FD049A059B4B
:1055F000A062E1621498159919F0E1FD3B00206367
:10560000616316981799320019F0D9FD049A059B29
:10561000A063E1630698079919F0D1FD3B0020646F
:1056200061640A980B99320019F0C9FD4746A064DD
:10563000E1644034A869E96919F080FE0600286930
:10564000696919F07BFE103501003200386805F0F9
:1056500033FFA542EED11DA804F004F8ECE5542375
:105660009846A8444046FDF725F8070014201BF093
:1056700077F9824605F05CF910201BF071F90400FF
:10568000FCF7F2FB00220023210022606360A2608D
:10569000E360504605F08EFA00220023226063602A
:1056A00000226C4B2100A260E360504605F082FAB4
:1056B0000022694B286D226063601BF08BF800228A
:1056C000664B19F0ACFDA060E1602100504605F08A
:1056D00071FA0026002F33DD2B004546B8465746A9
:1056E0009A4631002800FCF7D7FF10220100200065
:1056F0001BF030F9049805990022564B19F068FD0B
:1057000002000B002068616819F062FD0022206031
:105710006160069807994F4B19F05AFD02000B0083
:10572000A068E16819F054FD0136A060E160210035
:10573000380005F03FFAB045D3D1A8465546BA46E1
:105740009823EB5C002B50D1002200260027414B10
:105750002100A260E36050462660676005F02AFAE7
:105760002100504626606760A660E76005F022FAD7
:10577000102120001BF004F924A804F019FE2CAC21
:10578000514624A804F02CFE200004F011FE200055
:1057900024A905F027FB4B46012B1FD0102B0AD163
:1057A0004C9B002B07D01DA9200005F01FF92100FC
:1057B0004C9805F07BF8200005F066FB24A805F066
:1057C00063FBD3E50123320000931DA83B0003F0E7
:1057D000D9FCA7E5224E1EE6214F09E69C232000B6
:1057E000EA581DA905F04EF8E5E710201BF0B8F8BF
:1057F0000600FCF739FB00214046FCF74DFF102264
:10580000010030001BF0A6F8049805990022114B06
:1058100019F0DEFC02000B003068716819F0D8FC4A
:10582000002230607160069807990A4B19F0D0FC8D
:1058300002000B00B068F16819F0CAFCB060F160BA
:105840003100504605F0B6F9102130001BF098F8F1
:105850007AE7C0460000F03F0000544000002440BA
:10586000FFFF7FFF7047C0462D20704710B5040032
:10587000024B0360FDF72CF9200010BD6466131085
:10588000064B10B503600400FDF722F9B02120009B
:1058900049001BF075F8200010BDC0466466131067
:1058A00070B50D0004001431E83007F0F3FA290058
:1058B000201D203107F0EEFAEC23E8581AF052FFD1
:1058C00096235B00E05026003C3BE8581AF082FF2C
:1058D000F8231936FF3630607160E8581AF07AFF05
:1058E000FC2320636163206461648026E8581AF019
:1058F00071FF7600A063E163A064E164A8591AF027
:1059000069FFE82320676167EB5C0120A35570BD48
:1059100010B50400FEF74CFC014B2000236010BDC5
:10592000D0661310F8B5CE464746080080B50E0085
:1059300006F034FD071E38DD1D4B00249946012377
:105940000025984608E0002D27D13038C0B209283C
:1059500023D90125A74210DD2100300006F076FE94
:10596000012D0FD0022DEED10300203BDBB25E2BC8
:1059700013D99F2811D802256D422800C0BCB94612
:10598000B046F8BD3A280AD823280CD94B4624380B
:10599000C0B2C34042461A4205D00134DAE741386A
:1059A000C0B21928F9D90225D4E70025E5E7C04699
:1059B000C3FE7F00F0B5DE4657464E464546E0B58D
:1059C00085B0040007F078FB002806D198235B001F
:1059D000E258043BE3589A4215D09E22002325004A
:1059E0005200A3501035043A29002000A350FFF7BD
:1059F00099FF02300FD1902200235200A3501C3295
:105A0000A350043AA350002005B0F0BCBB46B246F8
:105A1000A946A046F0BD280006F0C0FC0028EADD3B
:105A20000021280006F04EFE0123012200930021F0
:105A30000133824615F082FC071E57D09A235B0083
:105A4000E058002801D01AF097FF90250423F85E53
:105A5000BB886D001A041343635140431AF084FF5E
:105A60009A235B00E0509C46635FB868002B3ADDE8
:105A700091235B009846E15E9C2300229E265B00FA
:105A8000D3460125BA4699460F0076000392039A41
:105A90007A43002F25DD002302920EE04A46494654
:105AA0003D70A25801326250A25901330132A25115
:105AB0004246A75E01309F420BDD029A29009F18E3
:105AC0006246A258D719027811401542E6D13970C2
:105AD000EAE79023039A5B0001320392E35E93426C
