:020000041000EA
:1080000000200420F7800010CB800010CD800010ED
:10801000C9800010C9800010C9800010C9800010FC
:10802000C9800010C9800010C9800010CF800010E6
:10803000C9800010C9800010D1800010D3800010CA
:10804000C1800010C1800010C1800010C1800010EC
:10805000C1800010C1800010C1800010C1800010DC
:10806000C1800010C1800010C1800010C1800010CC
:10807000C1800010C1800010C1800010C1800010BC
:10808000C1800010C1800010C1800010C1800010AC
:10809000C1800010C1800010C1800010C18000109C
:1080A000C1800010C1800010C1800010C18000108C
:1080B000C1800010C1800010C1800010C18000107C
:1080C000EFF30580103800BE00BE00BE00BE00BE4B
:1080D00000BE00BEF2EB8871301405105C14051070
:1080E0003881001090A31AE71E481F49086006C88F
:1080F00081F3088810471D480068002801D01948FE
:10810000F3E70DA40ECC002902D000F012F8F9E735
:108110001749184A002000E001C19142FCD11649DC
:108120008847164988471649884700BEFDE701C9B8
:1081300001C29A42FBD370475C140510C0000020B6
:10814000DC2C0020784005100000042000000420F2
:1081500078400510001004200010042000000000EA
:10816000704700000000000008ED00E0000000D0B3
:10817000DC2C00209426022001A9021069010210C3
:10818000C1A80210F8B5C04606480749091A8B1065
:10819000C90FC91810B5491003D0044B002B00D0EB
:1081A000984710BDDC2C0020DC2C002000000000D3
:1081B000054B10B5002B03D00449054800E000BF73
:1081C000FFF7E2FF10BDC046000000006C920120E6
:1081D00094D10310F0B50826CE4647460022761A01
:1081E000304180B5174B184C1A702278174D56182D
:1081F0002B8880B2102E09DC8B400343F2B29BB275
:108200002B802270C0BCB946B046F0BD1026B61A0D
:10821000F6B2B3400E4F99463B68083A9C4601239C
:1082200063443B604B469FB263463F0A1F704B4618
:108230001B048A181B0C891B8B400343D2B29BB2D0
:10824000DEE7C046542000205226022022260220CB
:10825000547900200822F0B5CE4647461A4B521AF0
:108260001B5C0020134180B5184A194C107022780D
:10827000184D561828889BB2102E09DC88400343FD
:10828000F2B29BB22B802270C0BCB946B046F0BDA2
:108290001026B61AF6B2B0400F4F81463868083A39
:1082A0008446012060443860484687B260463F0AF1
:1082B0000770484600048A18000C891B8840034355
:1082C000D2B29BB2DEE7C04698D103105420002002
:1082D000522602202226022054790020044B421C00
:1082E0001A60044B02781A700822034B1A70704708
:1082F00050790020512602204C2602200022044BF7
:108300001860044B1A70044BAA321A807047C0469A
:10831000547900205226022022260220F0B5DE46A3
:1083200057464E464546424AC3B2E0B5D35C000AC2
:10833000105C1B02181883B080B20C1C082900D9ED
:108340000824002208263B4BE4B21A703A4B361B35
:108350009B461A88030A3341384F9BB23D782E1949
:10836000102E11DCA24013435A46091BF5B29BB2F2
:10837000C9B213803D70002932D103B0F0BCBB46B6
:10838000B246A946A046F0BD1026B4466646761B06
:10839000F6B2B240B4462A4E0192B0463668083D65
:1083A000B14601264E44B246464652463260019AD4
:1083B0006519924692B2120A90464A46464616708F
:1083C000524666461204120CA61BB24013435A468C
:1083D000091BEDB29BB2C9B213803D700029CCD00D
:1083E0000822C0B2521A10416A1880B2102A05DC65
:1083F0008B403A705A4603431380BEE7104C10225C
:108400002668521BB4460126D2B2934066442660C9
:1084100066469CB2240A1B0434701B0C0C00891A9B
:108420008B4018435B46083C2D193D701880A4E72B
:1084300098D1031054200020222602205226022028
:1084400054790020F0B5DE4657464E464546E0B525
:108450000C1C83B0082900D90824002208263A4BB6
:10846000E4B21A70394B361B9B461A88030A334113
:10847000374F9BB23D782E19102E11DCA2401343CA
:108480005A46091BF5B29BB2C9B213803D70002950
:1084900032D103B0F0BCBB46B246A946A046F0BDFF
:1084A0001026B4466646761BF6B2B240B446294E54
:1084B0000192B0463668083DB14601264E44B246A8
:1084C000464652463260019A6519924692B2120AA5
:1084D00090464A4646461670524666461204120CAC
:1084E000A61BB24013435A46091BEDB29BB2C9B258
:1084F00013803D700029CCD00822C0B2521A10411E
:108500006A1880B2102A05DC8B403A705A46034341
:108510001380BEE70F4C10222668521BB44601267A
:10852000D2B293406644266066469CB2240A1B047D
:1085300034701B0C0C00891A8B4018435B46083CB6
:108540002D193D701880A4E7542000202226022017
:108550005226022054790020F0B54E464546DE46AC
:108560005746FF23E0B5AA4E98460340F25C83B21B
:108570001B0AF35C12029B18A64A85B09446147835
:10858000A54A9BB2019212881D0A9146102950D922
:108590000027A24A1770082C00D9A7E062460834C9
:1085A000E4B214704A4612022A43019D92B22A8014
:1085B00045461D402B009A4DAA46082C00D0BEE02F
:1085C0001024120213439BB2FF22000C0240B25C43
:1085D000000A305C10391202C9B2101880B20D1CAA
:1085E000082900D908250826EDB2761B020A324177
:1085F000661992B2102E00DDBFE0AB401A43F4B210
:1086000092B2019B491B1A806346C9B21C700029B3
:1086100046D00823C0B25B1A1841631880B2102BF1
:1086200000DDC5E064468A402370019B02431A8046
:1086300036E0081C082957D80026784AC0B21670C0
:108640000822121A15412218ADB2102A2FDD744FDC
:108650001026B8463F684A46B9460127361BF6B28F
:108660004F44B240BA469346474652463A605A464D
:1086700092B2120A90464A46474617705A4612046A
:10868000120C861BB2401543019AADB215806246AA
:10869000083C0419091AE4B2C9B21470002913D1B4
:1086A00005B0F0BCBB46B246A946A046F0BDD4B268
:1086B0004A4682401543019AADB215806246091AB6
:1086C000C9B214700029EBD00822DBB2521A134150
:1086D00062189BB2102A00DD82E08D4060461D4387
:1086E000019B02701D80DBE70820A5E71022121B0A
:1086F000D7B24A460397BA40494F0292BA463F68FA
:10870000BB4601275F44B94657464A463A606A4627
:108710001289120A91465A464F4617700827029A44
:108720001204120C93463A00039FD71B3A005F468F
:1087300097403A002A4345461D402B0092B25746C7
:108740003F681025B94601272D1BEDB24F44AA40C2
:10875000B8469346574642463A605A4692B2120A83
:1087600090464A46474617705A4608271204120C8C
:108770007D1BAA4013439BB226E71026361BF6B298
:10878000B340B046264E3768B94601274F4437609C
:108790004F469EB2360A3E702E00083EA4191E04B3
:1087A0004346360CEB1A9E403243E4B292B228E7BD
:1087B00010231B1BDBB29A40194D2E68771C2F60CB
:1087C00095B22D0A35700D001204C91A120C083D1D
:1087D0008A4064196546019B10432C7018805FE73E
:1087E0001022121BD2B295400D480668771C076014
:1087F000A8B2000A307008002D04891A2D0C083820
:108800008D4024186046019A2B430470138047E77B
:1088100098D1031052260220222602205420002044
:1088200054790020F0B5DE4657464E464546E0B541
:1088300083B000900A1C102900D91022009BD6B2E8
:108840001B0C9846082E00D908220024784B0820DB
:108850001C70784BD2B21C789C464346801A1B0A87
:108860000341754FA0183D889BB2102813DC95403A
:10887000C4B260462B43B61A9BB2F6B23B8004707A
:10888000002E31D1102942D803B0F0BCBB46B2460D
:10889000A946A046F0BD102081464846001BC0B244
:1088A000854083466548019582460068083C8146BC
:1088B0004D46504601350560684680881419000A07
:1088C00082464846554605705846019D101A2D04AB
:1088D0002D0C854060462B43B61AE4B29BB2F6B22B
:1088E0003B800470002ECDD0FF2240460825024078
:1088F000AD1B2A41A51992B2102D58DCB340604639
:108900001343ECB29BB204703B801029BCD91039E0
:10891000C9B20D1C082900D908256A460826128804
:10892000EDB2761B120A3241661992B2102E1ADC91
:10893000AB401343F4B29BB26246491BC9B23B80C1
:1089400014700029A0D0FF22009802400820401A8D
:108950000241601892B2102850DC8B4064461343E9
:1089600020703B8090E73548102680460068361B13
:1089700081460120F6B24844B34082469B464046B9
:10898000534603605B469BB21B0A98464B464046E3
:10899000187008235B4298465B461B041B0CAE1BF9
:1089A000B340A84444441343E4B29BB2C4E7234811
:1089B0001025804600682D1B81460120EDB24844F9
:1089C000AB4082469B464046534603605B469BB2A3
:1089D0001B0A98464B464046187008235B4298464F
:1089E0006346B0444444E4B21C705B461B041B0C59
:1089F000761BB34013439BB23B8043E71020001B20
:108A0000C0B2834099460D4D2E68731C2B604B46B7
:108A10009DB22D0A35700D006346083D64191C7027
:108A20004B461B041B0C091A8B401A433A802BE758
:108A300054200020522602202226022054790020B1
:108A4000F0B51849184C0B782278984216D81B1AA2
:108A5000DBB20B70002B0BD1144803685D1C1B7834
:108A60000560237008230B701300114AD05CF0BD21
:108A7000104B1B5C134082402270F6E70B4E3568AA
:108A80006F1C2D7837602F00C61AB74027701C0066
:108A90001D41084B08341B5C241A2A430C701340F8
:108AA000E3E7C0464C2602205126022050790020E0
:108AB00098D1031098D2031030B50A490A4A0B78AE
:108AC000D8095B000B701378013BDBB21370002BED
:108AD00007D1064C23685D1C1B7825600B700823AA
:108AE000137030BD512602204C2602205079002000
:108AF000F0B51449144C0E682378701E002B10D169
:108B0000124B134D1A789C462B88082A0BD8082044
:108B1000821A934030009BB2037013412B800123D3
:108B200023700860F0BD1027BF1AFFB2BB409BB294
:108B3000083A1F0A701C3770D6B2624616700822B7
:108B4000921BE9E75479002054200020522602208D
:108B500022260220F0B557464E464546DE46E0B591
:108B60005C4C1600A54402AA1F00832394461B01F7
:108B700063441B780D009946574B0AA963441B8830
:108B800004009846554B63441B889A461623634459
:108B90001A000EF0D5FE002807D0514B9D44F0BCC2
:108BA000BB46B246A946A046F0BD0BA8FFF7A6FB00
:108BB00001210020FFF70EFB0C21A942894128006A
:108BC00049420EF047FC0028E7D120000EF066FE77
:108BD0000028E2D102ABDA8A08AB0193534602A81F
:108BE000844600933F4B200063440A991B6800F0C1
:108BF000F7FE0028D1D102AB1B8B9B460C2D01D96F
:108C00000D3DEDB228000EF019FC059020000EF08D
:108C10002BFE5946824620000EF024FE0400280058
:108C20000EF0B6FB0028B8D12000504480B20EF000
:108C300067FA059B1A240133C01883B29A4602AB27
:108C40009C461E2509AB64446544009332003B00FA
:108C5000414650460294019516F004F900289CD133
:108C600053462788FF1ABFB2202F12D93E00203E5C
:108C700020210020B6B2FFF7D5FD202EF7D83B000B
:108C8000213B9BB25B09DA02D31A5B01203FFF183C
:108C9000BFB2F9B20020FFF7C5FDFFF729FF01239E
:108CA00021880BA80F31C91099430EF091FE0BA833
:108CB000FFF714FB02AB02AA988B842394461B0196
:108CC00063441B6829884A460093434616F05EF9C0
:108CD00063E7C046ECF7FFFF340800003C080000E3
:108CE0001408000038080000F0B557464E464546C7
:108CF000DE46E0B56A4C9046A54404AA94469946DF
:108D0000684B0F0063441B780CA90493664B060064
:108D100063441B889B46654B63441B889A46644B9F
:108D200063441D686A792B7912021A43AB79EC7996
:108D30001B04134324061C43162363441A000EF03D
:108D4000FFFD002807D05B4B9D44F0BCBB46B246FC
:108D5000A946A046F0BD2000FFF7D0FA30000EF083
:108D60009DFD0028EFD104ABDA8A0AAB019353468C
:108D700004A80093AC2384461B01634430000C9983
:108D80001B6800F02DFE0028DDD104AB1B8BBA461A
:108D900005930C2F03D93B000D3BDBB29A4650469E
:108DA0000EF04CFB069030000EF05EFD059907902A
:108DB00030000EF057FD060050460EF0E9FA00288C
:108DC000C1D1079B981980B20EF09AF904AA944673
:108DD0001A23634402931E23069E634401368619B8
:108DE000B6B201930BAB009342464B465946300056
:108DF00016F038F80028A6D11821FFF713FDFFF769
:108E000077FE2000FFF76AFA0DA8FFF777FA012135
:108E10000020FFF7DFF90C21B942894138004942AF
:108E20000EF018FB002800D08DE70EF083F90EF04D
:108E3000BBFA002800D086E704AB5B8B9E1BB6B262
:108E4000202E12D93400203C20210020A4B2FFF7AC
:108E5000E9FC202CF7D83300213B9BB25B09DA02F6
:108E6000D31A5B01203EF618B6B2F1B20020FFF72C
:108E7000D9FCFFF73DFE04AB598B01230F31C9101C
:108E800099430DA80EF0A4FD0DA8FFF727FA04AB37
:108E9000D98B988B049A5B46009516F077F852E7C9
:108EA0005CF5FFFFB80A0000BC0A0000C40A00001D
:108EB000C80A0000A40A0000104B10B518700EF08C
:108EC0007DFD0EF03BFD002800D010BD00F0DAF86B
:108ED0000028FAD10DF06AFE15F0B4FF0028F4D195
:108EE000074B084A1A60084B084A1A60084B094A9F
:108EF0001A60094B094A1A60E7E7C0464626022075
:108F00002879002070D303102C7900202CD3031073
:108F100030790020E8D2031034790020A4D2031065
:108F200010B50EF03FF900280BD1064B064A1C681D
:108F300011681460054A14681C60054B1C681960B0
:108F4000146010BD2C790020287900203079002091
:108F500034790020F0B5DE464E46574645460C00B3
:108F6000E0B58BB0984614AB1F7815AB1B88060094
:108F7000079317AB1B880D2120009B4606921EF01D
:108F8000D1F9CBB299460C2C2AD9002015F02EFD30
:108F9000394B9A461B78012B2AD0384B1B78012B72
:108FA00038D04B46002B4CD0189B210004935B46D5
:108FB0000393169B30000293079B069A0193009738
:108FC0004346FFF791FE050053461B78012B4CD01A
:108FD00028000BB0F0BCBB46B246A946A046F0BD87
:108FE000012015F003FD244B9A461B78012BD4D1A8
:108FF00058460EF0E5FC051E3BD05A4616991FF068
:10900000F1FF594628000EF01BFD1C4B16951B78EE
:10901000012BC6D1300008AA09A90EF091FC051E4B
:10902000D6D102A98C461A22624401920A8B3000E2
:109030000092099B5A46169900F0EEFB051EB0D02F
:10904000C2E7189B210004935B460393169B3000F4
:109050000293079B069A019300974346FFF77AFD18
:1090600053461B780500012BB2D116980EF0ACFCCC
:10907000AEE7034DACE7C04646260220552000204F
:10908000041000000023044A00201380034A1380C8
:10909000034A13807047C0461A2602202026022069
:1090A0001C260220F0B5DE464E4645465746E0B542
:1090B0008DB0934616AA1688CF4A0C001188050079
:1090C000814225D0002E13D10023179A601E1380F1
:1090D000431E9841FA234042DB001840C74B9C4690
:1090E00060440DB0F0BCBB46B246A946A046F0BDF8
:1090F000482D24D8112D53D82B00083B022B00D922
:109100001EE20023179A1380012C47D0BC48E8E7E1
:10911000BC480788B742D5D1482900D10CE20029C4
:1091200000D0E6E2179B013C1980631E9C41FA23A4
:109130006042DB001840B44B9C466044D1E7002BF2
:1091400027D00320AF4915800E80B04908705946DA
:10915000C91801390978212900D1D6E13F2900D168
:10916000CAE2AB49AB480B8000210170AA480170EC
:109170009E4200D181E0179B601E1980431E9841DA
:10918000FA234042DB001840A44B11809C46604407
:10919000A7E71380179A1380012CB7D1A048A0E746
:1091A000482DAED1974848231380002201219D4BC2
:1091B00006801A709C4B1E80964B1970964B197046
:1091C0009A4B1A709A4B1B78012B02D0002C00D0BE
:1091D000B6E2002205218D4B964D1A70964B197000
:1091E000964B01391970964B033919602831596033
:1091F000944999609449D9601621944B2B60944B03
:109200001970B310B10888469B009E4200D191E2CC
:10921000162300279946123B9A46033B0593514675
:1092200030001EF057F8013989B26A5C1300894991
:109230000A704A4641464A439B189BB2012F00D10F
:10924000B2E0059A012A00D1AAE1834A1E339BB2FB
:109250001380C3221201964200D899E00023179A86
:10926000013C1380631E9C41FA236042DB001840DE
:109270008023DB009C46604433E700210591069182
:109280004C20A8428041694940420870FA214900B7
:109290008B4200D943E2634A0195110007920022F4
:1092A0000A7000210391013188465F4A0A940892AE
:1092B00016806A4A99461700454634009246684926
:1092C0000B370497029109930B965B461E784B4629
:1092D000012B00D8EFE0013B9BB2994601239C464D
:1092E000E3440123BB605A2E00D9F4E1222E5BD95E
:1092F0003300233BDBB2372B56D8029A9B00D3585E
:109300009F4601233B70413B9846019BB0444C2B48
:109310004AD88020414640041EF004F8FE704346BF
:109320007B600023BB707B70854200D9C6E043465A
:109330006B43BD601D000C239C46013CA4B20C375E
:10934000E244002CC1D1A8464346013B019D0A9C42
:109350000B9E190E00D100E22022C9B24BB2002BA5
:1093600005DB4B00013AD9B2D2B21B06F9D5039BFB
:1093700004990C3FD3187A709BB28A704C2D13D885
:10938000069A012A00D15CE7334A10339BB213805E
:10939000179A00201380A4E600233B702F3B9846C9
:1093A000019BB0444C2BB4D9FE20800099E60223E7
:1093B0003B70019B4C2BF7D81B232A489846AEE7FD
:1093C0000823079A3B701378002B05D101331370E3
:1093D000099B089A1B1B13804B46002BE4D05B466D
:1093E0001B782B2BE0D0069B012BDDD080235B026A
:1093F0000120984693E7C0461A260220FE0300008B
:10940000C50B00001C260220F30300004A260220A0
:1094100020260220582602204B260220FD030000B1
:10942000F50300005626022024260220552602209D
:109430004526022060790020492602205726022076
:109440003879002091060000390D0100060B111635
:109450004F2602204E2602201E26022009860020CA
:10946000B4D30310427B090007233B70019B4C2BB4
:109470009AD8802380205B00984640024FE7032360
:109480003B70019B4C2B8FD82523BD48984646E75F
:1094900005233B70019B4C2B86D82923B94898465D
:1094A0003DE704233B70019B4C2B00D97CE70B2349
:1094B000B548984633E70023994612E7013D290E47
:1094C00000D028E1FF231B041D4200D02DE1FF2323
:1094D0001B021D4200D03BE108220823EDB268B216
:1094E000002806DB6A00013BD5B2DBB21206F9D5D3
:1094F0001A0051460B70039945468C46624492B25D
:109500000392049A0497937015E7A049013B9BB21C
:109510000B809F49023808709E490870B34200D9F9
:10952000CBE00121059101210691002B00D0A7E697
:109530001380179A138037E7002E00D1C4E532E676
:10954000954B0A271E8000231580944A0121137031
:10955000AF425B41924ADBB216808D4AAF42BF41B7
:1095600011701A0005938B4B7F421A708D4B2800A7
:109570001F7009311DF0D6FE89B2072900D9C3E555
:10958000894B89005B589F46072007230121874AA2
:1095900073431170864A9BB210700A2D00D903E7FD
:1095A000844A19339BB21380FA225200964200D9A2
:1095B00054E6EDE600227D4B7F4D1A707F4B03325F
:1095C0001A707F4B01321A707E4B033A1A602432B4
:1095D0005A607D4A9A607D4ADA607D4B04222B6096
:1095E0001523924699467B4A5146137030001DF070
:1095F00071FE83B2984653465843864200D00EE629
:1096000000231A0013E60022684B6B4D1A706B4B57
:1096100005321A706A4B013A1A706A4B033A1A60A3
:1096200028325A606C4A9A606C4ADA606C4B0422A9
:109630002B60162392469946D5E700225B4B5E4D80
:109640001A705E4B02321A705D4B03321A705D4B1A
:10965000043A1A601A325A60624A9A60624ADA60C0
:10966000624A2A60624A1A61182305229946924684
:109670002B71B8E700224D4B4F4D1A704F4B0432FF
:109680001A704F4B02321A704E4B053A1A600A326A
:109690005A606E329A60574ADA60574A2A60574ACF
:1096A0001A61574A5A61574B0622AB8015239246DE
:1096B000994698E70820082368E700231380179A43
:1096C000601E1380434258414F4B404218404F4B5D
:1096D0009C46604405E57E2E00D065E606233B707F
:1096E000019B4C2B00D95FE68020802380029846A6
:1096F00015E6304B1B884BE601202449013B9BB209
:109700000B8023490870002022490870B342D4D846
:109710000021059107E720222023CDB2DFE60023B8
:109720001380179A3A481380DBE42D0C1822182373
:10973000EDB2D4E6374B1A7016234B439BB22FE79A
:1097400002221A4B1A70B7231A4A5B0013801FE6D5
:109750002D0A10221023EDB2C1E6FF22120413429B
:1097600006D1FF221202134206D10822D9B2F5E532
:109770001B0C1822D9B2F1E51B0A1022D9B2EDE573
:109780003EEB0600703E0600D14517002026022061
:10979000582602204B2602201C2602205626022094
:1097A000242602205526022094D403104A260220A3
:1097B0004D2602201E260220607900204926022024
:1097C000572602203879002059050000DDC5000029
:1097D000060B10154F26022091060000390D0100DE
:1097E000060B1116D9020000E34C0000050A0F1405
:1097F000F11B08003305000004070B0E313900008F
:109800001B7502001215000030F8FFFFCF0B00009F
:10981000F60300004E260220F0B5C6460C000021DB
:10982000150000B584B00B9E1A0031800E316944DA
:109830000AAB1B88019100950121FFF733FC00283A
:109840000CD1604B1B78022B06D00BD8002B1FD0FD
:109850005D4B1B78072B5FD00023338004B080BCA6
:10986000B846F0BD032B22D1002DF5D033885749DF
:10987000ED18AAB29046564A944601330A789BB234
:1098800027783380082A12D865469200AA5897464E
:10989000002DE1D04F4B1A783388022A4ED0032A8C
:1098A0005BD0042A6CD0052A79D0013333804A4832
:1098B000D4E7402F0AD9CA78BA4207D30C31013411
:1098C0004345DAD1C8E77FB2002FF7DA4348C5E74E
:1098D000202FF3D03A00413A192AEFD92C3F0D2F0F
:1098E000ECD9F3E72B2FE9D0F0E72F2FE3D83B4853
:1098F000B4E7202FE2D03A00413A192ADED907E036
:10990000202FDBD0413F192FD8D9DFE7202FD5D02A
:10991000303F092FD2D9D9E7002D9DD033885D196A
:10992000ADB202E00134AB4296D0227801339BB253
:1099300052B23380002AF5DA28488FE75D19ADB2BC
:10994000227801339BB23380202A02D0413A192A6F
:10995000BCD80134AB42F3D17EE75D19ADB22278B9
:1099600001339BB23380202A06D0110041391929D6
:1099700002D9303A092AA9D80134AB42EFD16BE7BA
:109980005D19ADB2227801339BB23380202A02D018
:10999000303A092A9AD80134AB42F3D15CE75D1919
:1099A000ADB2227801339BB23380202A06D0110059
:1099B0004139192902D92C3A0D2A87D80134AB42F2
:1099C000EFD149E74A2602204D26022014860020C6
:1099D000B4D40310492602205014000001040000F2
:1099E000F0B54546DE4657464E46E0B50600002037
:1099F00087B01C0010AB1D88C34B8046187002A8AE
:109A000084460E23634401933000130000950A003E
:109A10000121FFF747FB071E38D102ABDB89119A02
:109A20001380482E1CD0B94B1B78012B00D11DE1AF
:109A3000B74B1B88984600F0A3F9F0B200F0A6F9E6
:109A4000300A00F0A3F94146200000F0BBF900F015
:109A5000DFF91021FEF762FCAE4B1B78012B20D002
:109A6000AD4B1B78022B26D000D972E0002B32D0F0
:109A7000002D0ED06519A94EADB220783178013491
:109A8000FEF7E8FBA3B2AB42F7D102E04246119BDE
:109A90001A80380007B0F0BCBB46B246A946A046C3
:109AA000F0BD9F4B1B78012B00D161E10E212800F6
:109AB000FEF734FCD4E79B4E350034002C3520886B
:109AC00010210234FEF7BEFCA542F8D10E21B08D64
:109AD000FEF7B8FCDDE7002DDBD000220392924AAE
:109AE00026009046914A00239246914A9146621977
:109AF0009346424612783178042A00D1B9E000D961
:109B0000A2E0022A00D1B9E0032A20D10A00403A9B
:109B1000D0B28446120600D5C8E0614650465A1CB1
:109B20009B001B58D2B24B4303998C469C4463461E
:109B300003934B461B78934200D1A6E05B46013667
:109B4000B1B29BB2994200D1CCE01300D1E7794F7A
:109B50009FE7032BFBD1002D9BD0774B002098462D
:109B6000764E337822780134082BF0D841469B009A
:109B7000CB589F46303AD2B20C239946013DADB244
:109B8000B144B36871785343C018002958D1002DEF
:109B900000D17EE74E46E4E71300403BD9B2013DD9
:109BA0008A46A9B28B460C218946B144CC461B0695
:109BB00000D585E052465D46E3E71300403BD9B24D
:109BC0008C460C218946013DADB2B1441B0672D4CE
:109BD0006246D6E7013D202A7DD00C239946403AC3
:109BE000ADB2B144D2B2CCE70C239946013DADB23F
:109BF000B144202A6DD02F3AD2B2C2E7413AD2B254
:109C0000BAE76B1E9BB29A460C239946B144012DCC
:109C100000D1B2E04B46002504E00135ADB20C3373
:109C2000AA4502D01A78082AF7D100F0A9F829002D
:109C3000200000F0C7F8554600F0EAF80022A0E73F
:109C4000FEF78AFC0020A2E7052A80D10A00403AEC
:109C5000D0B28446120600D45FE70A00203AD2B29E
:109C60000F2A25D83648920082589746FE27BF0013
:109C70000FE7202907D02F39C9B24FE7202902D09A
:109C80004039C9B24AE7002148E72E4B60461978AF
:109C9000FEF762FC013663199BB2B2B2934200D167
:109CA000F7E6002300220393130022E72029EAD0DD
:109CB0001539C9B232E7202A0BD0153AD2B260E783
:109CC0001300203BDBB20F2B15D81F499B00CB584C
:109CD0009F46002255E70C239C46B444E1460022EF
:109CE000ADB24EE7002A00D1D3E6184B039819789D
:109CF000FEF732FCCDE6153A5D46D2B241E72821A7
:109D00000CE727210AE7C0464526022055260220F7
:109D100024260220582602204A2602204D26022010
:109D20004B260220582000204926022038790020A6
:109D30005726022050140000D8D4031014860020A7
:109D4000FCD403104F2602203CD503104E260220DF
:109D50002621E3E62521E1E65D46272211E75D465F
:109D600028220EE75D4626220BE75D46252208E7FE
:109D700009212800FEF7D2FA72E6002555E7C04611
:109D80000022014B1A8070472826022003000100A0
:109D90000F200B4A30B514880909634003409D0128
:109DA0005B199D015B19240963409BB2594008402F
:109DB00081014018810140181B095840108030BDB6
:109DC00028260220F0B500291FD0104B00249C4605
:109DD0000F251F88035D01341A007A402A4096013E
:109DE000921996013F0992197A4092B21B09534089
:109DF0002B409F01DB199F01DB19120953409FB2D1
:109E0000A3B29942E6D863461F80F0BD28260220FF
:109E1000014B18887047C046282602200160027155
:109E20007047C046F0B585B00CAD2F7840250AAC20
:109E300026780BAC2478360364031443344349007A
:109E4000DB032343294303ADAB709AB200233943AC
:109E5000120A6A70297001792A000068009303339E
:109E600023F0F8FE05B0F0BD002200238260C3603D
:109E7000026043607047C04602604360009A019BE5
:109E80008260C3607047C046002200238261C361C4
:109E9000026143618260C360026043607047C046F4
:109EA000E022064B12068267C3678266C3660267BA
:109EB000436780234022C2527047C046FFFFEFC76E
:109EC000012070471D2070470A4B10B50400036045
:109ED000543000F055FBE022074B1206A267E367FF
:109EE000A266E36622676367802340222000E25275
:109EF00010BDC04684D50310FFFFEFC710B50400A6
:109F0000034B0360543000F063F9200010BDC046DD
:109F100084D5031010B50400054B0360543000F0E5
:109F200057F9200088211FF073F8200010BDC046AB
:109F300084D50310F0B5D6464F4646468246C0B596
:109F40009AB013A807F048F806A8FFF78DFF002481
:109F5000002553460AA89A6FDB6F0894099506926C
:109F60000793FFF781FF54235344180099460A943E
:109F70000B950C940D9500F00DFB534651469A6ECF
:109F8000DB6E086F496F1DF014FC22002B000600E9
:109F90000F001DF089FC002807D030003900002296
:109FA0003E4B1DF00FFC06000F0080235246D05A96
:109FB0001DF0A2FC002204000D0030003900374BD8
:109FC0001DF009FC02000B00200029001DF021FCFF
:109FD0000022334B1DF0F6FB1DF0AAFC80461DF05D
:109FE0008FFC0B000200390030001DF0F4FB040070
:109FF0000EA80D00FFF738FF102206A90EA81EF0CC
:10A00000F1FF0C9E0D9F514680208A6EC96E00069E
:10A010000B180021029603970A9E0B9F049113A828
:10A020000096019707F0C4F901220EA913A807F0C2
:10A0300001FA48460EA900F0F3FA4346002B24DD4E
:10A0400080231B062600EF180024002506A91022F5
:10A050000EA81EF0C7FF0C9A0D9B13A80292039343
:10A060000A9A0B9B0495009201933B00320007F083
:10A070009FF901220EA913A807F0DCF90134484624
:10A080000EA900F0CDFAA045E0D113A807F0C6FB59
:10A090001AB0E0BCBA46B146A846F0BD0080764092
:10A0A0000000F03F0B6B70B503650400886A0D007B
:10A0B0001EF0D8FE2323A064E164EA5C5F33E2541F
:10A0C0006A6A023B686BE2521EF0CCFEA066E16653
:10A0D000A86B1EF0C7FE20676167E86A1EF0C2FE2B
:10A0E000A067E167E86B1EF0BDFEA062E162286C2C
:10A0F0001EF0B8FEA063E163686C1EF0B3FEA060C2
:10A10000E160A86C1EF0AEFE206161612000FFF7E7
:10A1100011FF012070BDC046054B10B5040003605F
:10A120004068002801D01EF06FFF200010BDC0461F
:10A13000B8D50310074B10B5040003604068002831
:10A1400001D01EF061FF200010211EF061FF2000F1
:10A1500010BDC046B8D50310054B10B50400036010
:10A160004068002801D01EF04FFF200010BDC046FF
:10A17000C8D50310074B10B50400036040680028E1
:10A1800001D01EF041FF200010211EF041FF2000F1
:10A1900010BDC046C8D50310054B10B504000360C0
:10A1A0008068002801D01EF02FFF200010BDC0469F
:10A1B000D8D50310054B10B5040003608068002853
:10A1C00001D01EF021FF200010BDC046E8D50310CD
:10A1D000054B10B5040003604068002801D01EF054
:10A1E00013FF200010BDC046F8D50310074B10B573
:10A1F000040003604068002801D01EF005FF200025
:10A2000010211EF005FF200010BDC046F8D5031038
:10A21000F8B5C268836804000D00934206DA466808
:10A220002A68591C9B00A1609A51F8BD0C4A0A3358
:10A23000C3609800934201D9012040421EF0DCFE29
:10A2400067680600002F07D0A268390092001EF050
:10A25000C9FE38001EF0D8FEA3686660E0E7C0467D
:10A26000FEFFFF1F074B10B5040003608068002845
:10A2700001D01EF0C9FE200014211EF0C9FE2000EE
:10A2800010BDC046E8D50310074B10B504000360AD
:10A290008068002801D01EF0B7FE200014211EF0B7
:10A2A000B7FE200010BDC046D8D50310114B02697F
:10A2B00070B506000360C068002A07DD0024A30013
:10A2C0001D58002D08D10134A242F8DC002801D02D
:10A2D0001EF09AFE300070BD28000AF00DF928002B
:10A2E0000C211EF095FE32690134F068A242E6DCD2
:10A2F000ECE7C04608D60310134B026970B50600A0
:10A300000360C068002A07DD0024A3001D58002D4B
:10A310000CD10134A242F8DC002801D01EF074FEFA
:10A32000300018211EF074FE300070BD28000AF0C5
:10A33000E3F828000C211EF06BFE32690134F0684E
:10A34000A242E2DCE8E7C04608D60310034B0360F4
:10A35000002343608360C3607047C046B8D50310D4
:10A36000F8B504008068E3680D00984204DA666876
:10A37000431CA3603554F8BD0A30E0601EF03CFE7B
:10A3800067680600002F06D03900A2681EF02AFE7A
:10A3900038001EF039FEA0686660E9E710B50400D9
:10A3A0004068002803D01EF02FFE002363600023C6
:10A3B000A360E36010BDC046034B0360002343600D
:10A3C0008360C3607047C046C8D50310F8B5C26843
:10A3D000836804000D00934205DA46685A1C9B000E
:10A3E000A2609D51F8BD0C4A0A33C36098009342A5
:10A3F00001D9012040421EF0FFFD67680600002FD2
:10A4000007D0A268390092001EF0ECFD38001EF063
:10A41000FBFDA3686660E1E7FEFFFF1F030000206D
:10A42000002905DB9A68914202DA5B688900C85806
:10A430007047C046002906DB83688B4203DD406815
:10A440008900401870470020FCE7C046406870470C
:10A450008068704710B504004068002803D01EF0E3
:10A46000D3FD002363600023A360E36010BDC046FA
:10A47000044B0360044B436000238360C3600361AB
:10A480007047C046D8D50310C8D50310F8B5026987
:10A49000C36804000D00934205DA86685A1C9B00CD
:10A4A000E2609D51F8BD0C4A0A3303619800934263
:10A4B00001D9012040421EF09FFDA7680600002F31
:10A4C00007D0E268390092001EF08CFD38001EF0C3
:10A4D0009BFDE368A660E1E7FEFFFF1FF8B50400FF
:10A4E000C36800690E00834202DB0A33180023614F
:10A4F0000D4B984214D880001EF07EFD0660A668C1
:10A500000500002E0AD0E7683100BA000430013798
:10A510001EF068FD3000E7601EF076FDA560F8BD16
:10A5200001204042E8E7C046FEFFFF1F0300002075
:10A53000002905DBDA68914202DA9B688900C85875
:10A540007047C046C068704710B504008068002896
:10A5500003D01EF059FD0023A3600023E3602361B4
:10A5600010BDC046044B0360044B4360002383606E
:10A57000C36003617047C046E8D50310C8D5031017
:10A58000034B0360002343608360C3607047C04691
:10A59000F8D5031010B504004068002803D01EF061
:10A5A00033FD002363600023A360E36010BDC04659
:10A5B000F0B50023C64600B54B60CB608B604368A6
:10A5C00080460E00002B28D0C468002C25DD802397
:10A5D00020011B059C4201D3012040421EF00CFDCE
:10A5E00007000500013C2800FFF73EFC1035013C48
:10A5F000F9D24346DB687760F36043469D68B560F7
:10A60000002D0ADD00245E682D0138193119102251
:10A6100010341EF0E7FCA542F7D180BCB846F0BD6F
:10A62000F0B5C6468468C3680600884600B59C42FB
:10A630000BDA4768631C24014146B36038191022C5
:10A640001EF0D0FC80BCB846F0BD200080230A304C
:10A65000F0601B0598421CD3012040421EF0CCFC48
:10A6600007000500093405D42800FFF7FDFB10356D
:10A67000013CF9D27468002C08D0B268210038007F
:10A6800012011EF0AFFC20001EF0BEFCB468776023
:10A69000D0E70001E2E7C046002906DB83688B4271
:10A6A00003DD40680901401870470020FCE7C04600
:10A6B0004068704780687047054B0360054B4360F6
:10A6C000054B83600023C360036143617047C0464C
:10A6D00008D60310D8D50310C8D50310002906DB0F
:10A6E0000369994203DAC3688900C858704700209B
:10A6F000FCE7C04630B50D0085B0040001A809F0A4
:10A7000087FE290001A80AF0A1FC0C201EF070FCB5
:10A7100001A9050009F0B0FE200069460830009547
:10A72000FFF776FD01A809F0E7FE05B030BDC04691
:10A730007047C046F0B5DE46454657464E460023B4
:10A740000C00E0B59946914B8DB00693904B4A783A
:10A750000793904B120208938F4B09938F4B0A93E8
:10A760008F4B0B930B781A438B78C9781B041343D8
:10A77000090619438B4B180098462DF023FD62788B
:10A78000237812021A43A378E0781B0413430006CF
:10A7900018432DF059FD844F844B050000207B6049
:10A7A0000CF004FE00282BD10CF00AFE061E29D165
:10A7B0002379EDB21F2B05D87D4A9B00D3589F46C5
:10A7C000002399464346029301230193002332005C
:10A7D00000931A214B460120049703950CF0F4FDD9
:10A7E000C4B2002C08D0FD2420000DB0F0BCBB4644
:10A7F000B246A946A046F0BD38000DF031F9F3E7A6
:10A80000FF24F1E7FE24EFE7302310269946D9E72D
:10A81000242310269946D5E724230C269946D1E710
:10A820000E230E269946CDE70C230C269946C9E740
:10A830000A230A269946C5E706AB9A4609AB56464F
:10A84000BA464746A8461D0033881A219B462B88E6
:10A850005A46994653460493434603930123019372
:10A8600000230120009302974B460CF0ADFD002819
:10A8700000D185E06278237812021A43A378E17848
:10A880001B0413430906194338002DF09BFC0236C4
:10A8900009AB0235B342D7D1122345469946B84693
:10A8A000082657466278237812021A43A378E17883
:10A8B0001B0413430906404619432DF083FC81E72E
:10A8C0002423242699467DE720232026994679E7EC
:10A8D00016231626994675E714231426994671E720
:10A8E0001223122699466DE710231026994669E730
:10A8F0001A231A26994665E718231826994661E710
:10A900001A230C2699465DE720230826994659E725
:10A9100012230826994655E790239026994651E739
:10A920008423842699464DE778237826994649E77B
:10A9300068236826994645E760236026994641E7E3
:10A940005823582699463DE750235026994639E723
:10A9500048234826994635E740234026994631E763
:10A960003423342699462DE730233026994629E7AB
:10A970002C232C26994625E728232826994621E7CB
:10A9800045465E46B84657468CE7C0460800080074
:10A990000C000C0010001000120020001A0024000F
:10A9A00024003000AC5A0020981F01206879002054
:10A9B00010D60310014B58887047C046981F0120DD
:10A9C000014B18887047C046981F01200B0010B536
:10A9D00013430ED4084B588881420ADA1B880020A2
:10A9E0009A4207DA0132013189B290B20DF0A8F82B
:10A9F00000E0002010BDC046981F0120024B5A887D
:10AA0000188850437047C046981F0120F8B5474644
:10AA1000CE4680B5144B5F881B8899460123984623
:10AA20004B46002B1ED00025002F16D04346012494
:10AA30009EB2A1B230000DF083F8431E984101345C
:10AA40002D18A742F5DA01239C46E044C845EDDD08
:10AA50002800C0BCB946B046F8BD01239C46E0447E
:10AA6000C145FADA0025F3E7981F0120962300215B
:10AA7000012270B55B000400C15052420433C25041
:10AA800000220C33C150043BC15006000C4B09346A
:10AA9000FF342260636000240A4D1136FF363460B3
:10AAA000756004001934FF34226063609023064A05
:10AAB0005B00C1500433C25001220433C25470BD44
:10AAC0000000F03F00005940010001000C207047D9
:10AAD000124B10B503609A235B000400C058002895
:10AAE00001D01EF091FA20000D4BF430236009F0E4
:10AAF00003FD2000E83009F0FFFC2000A03009F041
:10AB0000FBFC20001C3009F0F7FC2000103009F09D
:10AB1000F3FC201D09F0F0FC200010BD3CED0310FB
:10AB2000085A041070B50D0004001431E8300AF022
:10AB30008DFA2900201D20310AF088FAEC23E8580C
:10AB40001EF058F996235B00E05026003C3BE85885
:10AB50001EF088F9F8231936FF3630607160E85826
:10AB60001EF080F9FC232063616320646164802609
:10AB7000E8581EF077F97600A063E163A064E16411
:10AB8000A8591EF06FF9E82320676167EB5C01208C
:10AB9000A35570BD1023F0B5DE464E4645465746D8
:10ABA0009846E0B50600804485B0404652490AF018
:10ABB0004DFA30000AF05CFB002806D198235B00B8
:10ABC000F258043BF3589A4237D00021404609F02E
:10ABD00055FE96235B00F35802AA13719822520087
:10ABE000B350002302AA02900500012053711EF009
:10ABF000FFF90700FFF79CFD9A235B00F05800283F
:10AC000001D01EF001FA380002A9FFF793FD041EDF
:10AC10001AD09E2200235200B350043AB350183A7F
:10AC2000B350002D02D028001EF0EEF963425C41C3
:10AC3000380001211EF0ECF9E0B205B0F0BCBB46D3
:10AC4000B246A946A046F0BD404609F083FC002864
:10AC5000DFDD3800FFF7D2FE9E235B00F0503800A6
:10AC6000FFF7D4FE9C235B00F0503800FFF7C6FED0
:10AC70001EF0C2F99A235B00F05038009A46FFF7A5
:10AC800099FE90235B00F0523800FFF799FE912265
:10AC90009023520000B25B00B0529146F25E002356
:10ACA0009B46002ABDDDA046340001950097002890
:10ACB0001EDD5B461FB23B0000255F469B465346A8
:10ACC0007843E658401936182AB259460098FFF7DB
:10ACD0007DFE4B463070E05E0135A842EFDC01237B
:10ACE000BB469C462033FF33E25EE3449345DEDB04
:10ACF0004446019D009F94E7FCDB03109C22520018
:10AD000003008058282210B5FF329A5C002A09D02F
:10AD1000942252009A5C002A05D09E2252009B5831
:10AD2000181A013010BD902192224900595E9124D9
:10AD300052009A5A64001B5F520089189B184B43BB
:10AD4000181AEFE7154B10B503609A235B00040057
:10AD5000C058002801D01EF057F92000104BF430E5
:10AD6000236009F0C9FB2000E83009F0C5FB200092
:10AD7000A03009F0C1FB20001C3009F0BDFB200011
:10AD8000103009F0B9FB201D09F0B6FBA42120000A
:10AD900049001EF03DF9200010BDC0463CED0310F7
:10ADA000085A041070B504000AF07EFA154B00250D
:10ADB00023609623012221005B00E55052420433B8
:10ADC000E2502600002200200C33E550043BE55001
:10ADD00009310D4BFF310A604B6011360B49FF36CC
:10ADE0003060716021001931FF310A604B6090239F
:10ADF000074A5B00E5500433E2500122043320008F
:10AE0000E25470BD3CED03100000F03F00005940DB
:10AE10000100010010B5002915DB90235B00C35E23
:10AE20008B4210DD002A0EDB91235B00C35E934250
:10AE300009DD4B439A21490041588A18D05C431ED2
:10AE40009841C0B200E0002010BDC0467047C04627
:10AE50001E20704710B50400024B0360FFF74EF848
:10AE6000200010BD64ED031010B50400044B036016
:10AE7000FFF744F8200088211EF0CAF8200010BD1A
:10AE800064ED031010B50400FFF71EF8014B20001D
:10AE9000236010BD64ED0310F0B54E46DE46574604
:10AEA0004546E0B51F008223C35C050089461600B5
:10AEB0009B46B9B0002B07D1584639B0F0BCBB4611
:10AEC000B246A946A046F0BD836BC46B0C930D94AB
:10AED000826AC36A0E920F93DA4ADB4B12689200C1
:10AEE000D0581CF00DFD80230A001B069C46010073
:10AEF00014000891099264440022D44B0A900C98E3
:10AF00000D990B941CF085FCAA68EB6804900591E0
:10AF1000300039001CF056FC049A059B1CF049FCDB
:10AF20000022CB4B1CF04EFC0022CA4B1CF071FCE3
:10AF30000022C84B1CF03DFC0022109011910E988D
:10AF40000F99C24B1CF065FC2A696B6906000F0063
:10AF500042984399069607971CF034FC32003B0058
:10AF60001CF027FC0022BC4B1CF02CFC089E099F07
:10AF700032003B001CF04DFC32003B001CF019FC81
:10AF8000129013911DA806F027F8AE6CEF6C00220A
:10AF90000023300039001CF07FFC002800D13FE284
:10AFA0000A9A0B9B01240092019302940022AB4B5E
:10AFB0001DA806F091F8109E119F8020000684467F
:10AFC00032003900129E139F02943C006144644495
:10AFD0000B0030002100009001911DA806F0EAF856
:10AFE0004B46022B00D078E19D4B98461B68002B06
:10AFF00000D16EE124AC2500260038AF30001036B9
:10B00000FEF732FFBE42F9D10C980D9900230022C1
:10B0100024922593A260E360A261E36122636363EB
:10B0200022646364A264E36420616161052220629A
:10B0300061620E980F99A062E162A063E163210052
:10B040001DA806F0F7F926696769E022300039008B
:10B05000844B12061A961B971CF03CFC002800D16A
:10B06000E8E1390030001CF0D7FC071CA269E36955
:10B070001000E022190012067A4B189019911CF06A
:10B0800029FC002800D1D3E1189819991CF0C4FCC0
:10B09000061C381C226A636A0C920D931DF0E2FEB6
:10B0A00002000B000C980D991CF014FC002804D031
:10B0B0000C980D991CF0B0FC071C301CA26AE36AC6
:10B0C0000E920F931DF0CEFE02000B000E980F990A
:10B0D0001CF000FC002804D00E980F991CF09CFC7A
:10B0E000061C381C226B636B149215931DF0BAFE7C
:10B0F00002000B00149815991CF0ECFB002804D0FA
:10B10000149815991CF088FC071C301CA26BE36B8B
:10B11000169217931DF0A6FE02000B0016981799C1
:10B120001CF0D8FB002804D0169817991CF074FC6A
:10B13000061C381C226C636C069207931DF092FE6D
:10B1400002000B0004900591069807991CF0C2FBC1
:10B15000002807D0069807991CF05EFC1DF082FEBF
:10B1600004900591A26CE36C301C0A920B931DF0C5
:10B1700079FE06000F0002000B000A980B991CF0E4
:10B18000A9FB002807D00A980B991CF045FC1DF07C
:10B1900069FE06000F001098119900222D4B1CF03B
:10B1A0001AFB00222B4B1CF034FB049A059B1CF06D
:10B1B00009FB0022274B1CF005FB089A099B049011
:10B1C0000591129813991CF006FB089A099B1CF034
:10B1D00020FB32003B001CF0F5FA089A099B1CF09A
:10B1E000F1FA049A059B0F000600249825991CF09B
:10B1F000E0FA3B00320024902591A068E1681CF041
:10B20000D8FA049A059BA060E1601A981B991CF07B
:10B21000D0FA3B00206161611898199932001CF046
:10B22000C8FA049A059BA061E1610C980D991CF085
:10B23000C0FA3B00206261620E980F9932001CF048
:10B24000B8FA11E0F85800209CD503100000E03F48
:10B2500000003E4000804F4000002E4000804FC064
:10B26000108D0120FFFFEFC7049A059BA062E162E9
:10B27000149815991CF09DFA3B00206361631698A1
:10B28000179932001CF095FA049A059BA063E163BC
:10B29000069807991CF08DFA3B00206461640A98B7
:10B2A0000B9932001CF085FA4746A064E1644034F3
:10B2B000A869E9691CF03CFB0600286969691CF073
:10B2C00037FB103501003200386808F0D1F9A5428B
:10B2D000EED11DA806F0A2FAEEE554239A46AA4440
:10B2E0005046FFF7E7F9070014201DF081FE804665
:10B2F00007F0FAFB10201DF07BFE0400FEF7B4FD02
:10B3000000220023210022606360A260E3604046C7
:10B3100007F02CFD002200232260636000224A4BCC
:10B320002100A260E360404607F020FD0022474B69
:10B33000286D226063601DF095FD0022444B1CF0D7
:10B3400068FAA060E1602100404607F00FFD00268A
:10B35000002F31DD2B004546984631005046FFF75F
:10B360009BF91022010020001DF03CFE0498059975
:10B370000022354B1CF026FA02000B0020686168A1
:10B380001CF020FA002220606160069807992E4B7D
:10B390001CF018FA02000B00A068E1681CF012FA19
:10B3A0000136A060E1602100280007F0DFFCB74211
:10B3B000D3D14346A8461D00002200260027224B79
:10B3C0002100A260E36040462660676007F0CEFC83
:10B3D0002100404626606760A660E76007F0C6FC73
:10B3E0001021200024AC1DF013FE200007F0BCF853
:10B3F0004146200007F0D0F84B46012B1CD0102B03
:10B400000AD1449B002B07D01DA9200007F0CAFBDE
:10B410002100449807F026FB200007F011FEE3E529
:10B420000123320000931DA83B0005F087FFB7E51C
:10B43000084E2EE6074F19E684232000EA581DA97E
:10B4400007F0FCFAE8E7C0460000F03F0040554036
:10B4500000002440FFFF7FFF030030B501000024FF
:10B460000022094D1933FF331C605D602131074B09
:10B47000FF310A604B608A60CB60DC230222C2523B
:10B480005433013AC25430BD000039400000F03F4F
:10B490001420704770B506008036326873680A6001
:10B4A0004B60030088331C685D6808331A685B686A
:10B4B0008C60CD600A614B618C61CD610A624B6228
:10B4C000983034687568026843680C634D638A621B
:10B4D000CB628A63CB6370BD70B504000D00E830A9
:10B4E000143109F0B3FD2900200020311C3009F08F
:10B4F000ADFD2900201D343109F0A8FD862326006A
:10B500005B00E8581DF0AEFCFC231136FF363060BE
:10B5100071608026EA5C1E3BE2541F33EA5C7600D1
:10B520001D3BE254AB595A1E934198225200A3543A
:10B530008C235B00E8581DF095FC8E235B00206394
:10B54000616320646164E8581DF08CFC8A235B0011
:10B55000A063E163A064E164E8581DF083FC8823E4
:10B560005B0020666166A066E166E8581DF07AFC23
:10B5700092235B0020656165A065E165E8581DF0D8
:10B5800071FCFE2320676167EB5CA35590235B0091
:10B59000E8581DF067FC1934FF3420606160012019
:10B5A00070BDC04610B5040003F092F80C4B0020AB
:10B5B000236023000B491933FF33186059602100C1
:10B5C0000022094B2131FF310A604B608A60CB6059
:10B5D000DC230222E2525433013A2000E25410BD2F
:10B5E00088ED0310000039400000F03FF0B5DE4662
:10B5F00057464E464546E0B5D7B012921393802386
:10B6000010915B00C35C82469B46002B09D100234E
:10B610009B46584657B0F0BCBB46B246A946A0462A
:10B62000F0BD04001C34210031A808F025FF334B85
:10B63000210099461868083009F012FC4B461B6837
:10B64000002B00D173E32E4A2E4B12689200D05883
:10B650001CF056F92C4B1A901B9118681CF050F9ED
:10B6600010235344269027911800089308F072FF86
:10B6700080230A909B05984201D300F059FD041ED7
:10B6800001D100F029FD830018001E002D931DF04C
:10B69000AFFC05003200002122901DF09DFC290026
:10B6A000B4468023614422000F91013C5B059A421D
:10B6B00001D200F034FD012040421DF09DFC23909A
:10B6C0000134E200239C002120001DF085FC53463C
:10B6D0002133FF331A685B6800200C491CF07BF8AB
:10B6E000A04600230024069307945B46002714908D
:10B6F0001591229E4CAC169324E0C046EC890120A3
:10B70000F85800209CD50310ACD503100000F03F82
:10B71000186A1DF0A7FB149A159B1CF07AF80B0011
:10B72000020041460A604B60069807991CF04AF8EF
:10B7300008239C460A9B0137069007910436E04493
:10B74000BB4265D04B461B68390008989B4609F000
:10B7500059F85346E3220500985C1DF024FB2A00AB
:10B76000031C5946200006F053FB28201DF040FC26
:10B770000500210007F0FEFB236A2B62A38CAB843B
:10B78000336835609B46002B06D0180007F058FC44
:10B79000282158461DF03CFC200007F051FC33687E
:10B7A000002BB5D15346E322985C1DF0FCFA4A46C3
:10B7B000031C11682000202206F02AFB28201DF01F
:10B7C00017FC0500210007F0D5FB236A2B62A38C30
:10B7D000AB84336835609B46002B06D0180007F019
:10B7E0002FFC282158461DF013FC200007F028FCF0
:10B7F0003368002B8CD14146002300220A604B6045
:10B8000008239C460A9B01370436E044BB4299D189
:10B8100006980799169B00229B46E64B1BF0F9FF02
:10B8200006000F0088235B0053441C685D680022FB
:10B830002C932000E04B29001BF0CDFF5346193319
:10B84000FF331690179118685968982352465B0089
:10B85000D35C002B00D088E322002B001BF0A9FF53
:10B8600020902191D54AD64B1BF0D3FF04000D0048
:10B870001698179932003B001E941F951BF0C9FFC4
:10B8800022002B001BF0A7FFDC23524606900791F5
:10B89000D35A012B00D1C3E2022B00D1BCE200231A
:10B8A000C44C089309941298139953461A6B5B6B16
:10B8B0001BF088FF1A9C1B9D22002B001BF0A9FF88
:10B8C0005346289029919A6BDB6B609861991BF025
:10B8D00079FF2B0022001BF09CFF109B2A902B91DC
:10B8E000022B00D108E1169A179B200029001BF0BB
:10B8F00090FF802704000D0045AB18003F069846D6
:10B90000129305F069FB149A159B2000E9191BF0AE
:10B9100080FF012602000B0000940195404602962C
:10B9200005F0DAFB1A9A1B9B2098219902961BF0CE
:10B9300070FF0024002502001490159115994046CF
:10B94000CB190092019322002B0005F033FC22005A
:10B950002B00404600940195029605F02BFC220036
:10B960002B0040460294039500940195049605F03F
:10B970001FFDDE235246D35C002B01D000F0C3FB39
:10B980005146802501240A6F129E496F2D064B19DE
:10B990003000009405F0D2FC2A9A2B9B30000092D4
:10B9A0000193289A299B029405F004FC1A9A1B9B88
:10B9B000269827991BF00FFF149015910200002084
:10B9C000159902944B197F4900900191300005F0C0
:10B9D00083FB0A9B002B00D18BE0109B012B00D135
:10B9E000EBE2229B5A469846239B0024994600236B
:10B9F00000259B46249243461B68002B6AD04B4689
:10BA000000221E685F68704B300039001BF001FF98
:10BA1000169A179B1BF0FDFE1E9A1F9B1BF0DBFE68
:10BA2000089A099B149015911BF0CCFE32003B0044
:10BA30000890099116981799049405950294039516
:10BA40001BF0E7FE1A9A1B9B1BF0E3FE5F4B0022E4
:10BA50001BF0DFFE129E00900191012230000221B6
:10BA600005F0ECFA0899099A130080221206944610
:10BA700063441C911D931C9A1D9B0321009201930A
:10BA8000300003224CAE049405950294039505F012
:10BA9000D5FA300006F068FD43463000196807F01B
:10BAA0007DFA109B102B0AD1629B002B07D01299B4
:10BAB000300007F077F83100629806F0D3FF08985D
:10BAC0000999149A159B1BF07DFE0890099130008E
:10BAD00007F0B6FA01239C460333E3449C46043343
:10BAE000E0449C460A9BE1445B4500D083E7249BED
:10BAF0009B46129805F092FE354D2B68002B00D125
:10BB000063E145AB1800129305F066FADE23524656
:10BB1000D35C002B00D0D3E25146802001240A6F71
:10BB2000496F00060B18129900940800884605F02A
:10BB300005FC289E299F320080263606B44639002F
:10BB40002A9E2B9F61440B00404600960197029469
:10BB500005F030FB1A9E1B9F0023320040460096E2
:10BB6000019702933B0005F0B7FA26982799320017
:10BB70003B001BF030FE020000200B001149029434
:10BB800000900191404605F0A7FA069E079F00220B
:10BB90000023300039001BF09DFE00281AD18020C0
:10BBA000000639008446614432000B000692079378
:10BBB00010E0C046008066400000184097D17E5AD1
:10BBC000FB2109400000F0BF008056400000E03F2C
:10BBD000108D0120209A219B2C9E4CAC30687168FE
:10BBE0001BF0E7FD10901191200005F0F5F9089980
:10BBF000099A130080221206944663440B93002393
:10BC00000A91200000930A9A0B9B05F097FB41A82C
:10BC1000FEF7B6FC109811992C9ED84F32687368C5
:10BC20001BF0C7FD002300900191002234A8FEF70D
:10BC300023F9102234A938A81DF0D4F901222000DC
:10BC400038A905F0F7FB38A941A8FEF7E9FC3268EE
:10BC50007368369837991BF0B5FD102236903791EE
:10BC600034A938A81DF0BEF90122200038A905F03A
:10BC7000E1FB38A941A8FEF7D3FC98235B00984666
:10BC80005B460026AB46554610930023AA469946CC
:10BC900032E080231B069C46BC4463460C960D9301
:10BCA0000C980D99089A099B1BF083FD0B004946DF
:10BCB00002000091200005F041FB102234A938A8B1
:10BCC0001DF090F90122200038A905F0B3FB38A936
:10BCD00041A8FEF7A5FC002230003900A84B1BF05C
:10BCE00071FD06000F0002000B00069807991BF07B
:10BCF000E1FD002800D0FBE0069A079B30003900E8
:10BD00001BF0D2FD002800D193E0200005F074F96B
:10BD1000534642469D5C002DBBD1089A099B3000DA
:10BD200039001BF046FD009502000B00C2E731A868
:10BD300008F0E2FB6BE4200005F05EF90023200030
:10BD400000930A9A0B9B05F0F9FA200034A901220E
:10BD500005F070FB34A941A84D46FEF761FC41A8EF
:10BD6000FEF7A8FC814641A8FEF7A2FC4A46060061
:10BD70000100129805F05EFB012398464B461036F1
:10BD8000012B19DD22002B004C4645469146984672
:10BD9000B068F1681BF0CCFD0700306871681BF0DB
:10BDA000C7FD434601003A001868013507F060FC02
:10BDB0001036AC42ECD14C4641A8FEF709FA2000FF
:10BDC00005F02CFD129805F029FD23981DF01CF9B3
:10BDD000229A0F9B140093420DD02568002D16D097
:10BDE000280007F02DF9282128001DF011F90F9BDC
:10BDF00004349C42F1D1229B002B03D018002D99D2
:10BE00001DF006F931A808F077FBFFF702FC0F9B45
:10BE10000434A342E1D1EEE700225A4B1BF0F9FCB7
:10BE200002000B00002058491BF0C3FC0890099148
:10BE300039E5109B5D4600229B4630000023390007
:10BE40001BF048FD98235B009846002887D0A94640
:10BE500039E080231B069C46BC4463461896199320
:10BE600018981999089A099B1BF0A3FC0B00002154
:10BE700002000091200005F061FA102234A93CA8CC
:10BE80001DF0B0F8012220003CA905F0D3FA3CA92E
:10BE900041A8FEF7C5FB002230003900384B1BF0EB
:10BEA00088FC0022002306000F001BF0FDFC002888
:10BEB00000D040E700220023300039001BF00AFDCB
:10BEC000002800D132E1200005F096F853464246A2
:10BED0009D5C002DBDD1089A099B300039001BF0F4
:10BEE00068FC009502000B00200005F027FAC4E76B
:10BEF000200005F081F8982355465B00EE5C002E8B
:10BF000044D1089A099B069807991BF052FC0096A9
:10BF100002000B00200005F011FA102234A938A805
:10BF20001DF060F80122200038A905F083FA38A935
:10BF300041A8FEF775FB102234A938A81DF052F86D
:10BF40000122200038A905F075FA38A941A8FEF7AA
:10BF500067FB369837992C9B1A685B681BF029FCA5
:10BF6000069E079F369037918FE602000B00200057
:10BF700029001BF01EFC2090219173E40000F03F8B
:10BF8000000024400000E03F008066400699079AC8
:10BF9000130080221206944663442F932E91089A30
:10BFA000099B2E982F991BF004FC0B000021020026
:10BFB0000091200005F0C2F9AFE7229B5246984657
:10BFC000239B002499460023CA46002599461492D3
:10BFD00043461B68002B64D053461A685B68100008
:10BFE00019000022544B109011911BF012FC169A6C
:10BFF000179B1BF00EFC1E9A1F9B1BF0ECFB089A74
:10C00000099B06000F00089609971BF0DBFB169AA8
:10C01000179B06000F00109811990494059502943F
:10C0200003951BF0F6FB1A9A1B9B1BF0F2FB434B8C
:10C0300000221BF0EEFB01220090019102211298D8
:10C0400004F0FCFF80231B069C46BC4463462496F8
:10C050002593249A259B0321009201931298032291
:10C06000049405950294039504F0E8FF4CAB180086
:10C0700006F07AFA434619684CAB180006F08EFFBA
:10C080004CAB18000022129906F0D8FC08980999C8
:10C0900032003B001BF096FB089009914CA806F07B
:10C0A000CFFF01239C460333E1449C460433E04424
:10C0B0009C460A9BE2444B458AD1149B9A4618E55C
:10C0C0000023002202931E4B12980092019300223B
:10C0D0001C4B05F001F81FE500201CF08DFF5346B6
:10C0E0002133FF3323901A685B68002014491BF04A
:10C0F00072FB002300260027149015912D932293A4
:10C100000F93FFF78FFB104A104B12980092019388
:10C1100002960F4A0F4B04F0DFFFFFF731FC0A9B3A
:10C12000D8001CF069FF2390FFF7CAFA4D4616E6C7
:10C13000094821F0BBFEC046008056400000E03FA9
:10C140000000F03F0000F0BFD7A3703D0AD7E33FE7
:10C15000CDCCCCCCCCCCF4BF90D603100D20704706
:10C16000A02301225B00C2540022034B1930FF3090
:10C17000026043607047C0460000F03F10B5040005
:10C18000024B0360FEF7A4FC200010BDACED0310D1
:10C19000064B10B503600400FEF79AFCB0212000A6
:10C1A00049001CF035FF200010BDC046ACED031067
:10C1B00010B50400FEF7F6FD074B01222360A02313
:10C1C0005B00E2542300002004491933FF33186058
:10C1D0005960200010BDC046ACED03100000F03FD8
:10C1E000F0B5DE464E46454657460300E0B54933B6
:10C1F000FF331C685D68403B97B01A685B688246F5
:10C200008B46200029001BF004FB02000B002000DD
:10C210002900009201931BF0CCFA314B00221BF055
:10C22000F8FA02AB984616AB04000D009946464654
:10C2300030001036FDF718FE4E45F9D15146513108
:10C24000FF31002208684968254B1BF0E2FA020022
:10C250000B00200029001BF0ACFA0F0051465931A9
:10C26000FF3106000868496800221D4B1BF0D1FA17
:10C2700002000B00200029001BF09BFA04000D00B7
:10C280000098019932003B000494059502960397AB
:10C290001BF098FA22002B00069007910A900B9150
:10C2A00000980199089409951BF08CFA149415953F
:10C2B00044465D460C900D910E960F97109011918B
:10C2C0001296139721002800103406F04FFD4C45BC
:10C2D000F8D117B0F0BCBB46B246A946A046F0BDA7
:10C2E0000000E03FF0B5DE464E4645465746E0B515
:10C2F00082469BB01420894693461CF079FE06AC1A
:10C300008046260006F0F0FB1AAD30001036FDF72F
:10C31000ABFDAE42F9D153465133FF331E685F681F
:10C320008023BC461B066344300019000022604B8A
:10C33000029603971BF06DFA53465933FF33009072
:10C34000019119685A68802394460E0017001B0655
:10C350006344080000221900554B049605971BF012
:10C3600058FA009A019B06000F0002980399069262
:10C370000793089609971BF025FA32003B000A90B4
:10C380000B910E900F91049805990C960D971BF048
:10C3900019FA009A019B1896199747461090119127
:10C3A00012921393149015911692179306AE3100C2
:10C3B0003800103606F0DAFCAE42F8D139004846B3
:10C3C00006F0EAF8564614201CF012FE4936804664
:10C3D000FF3606F089FB58461BF08EFA3268736808
:10C3E0001BF017FA06000F0002000B0006980799D1
:10C3F0001BF0DFF932003B0006900791089809997D
:10C400001BF0D7F932003B00089009910A980B996C
:10C410001BF0D8F932003B000A900B910C980D9953
:10C420001BF0C7F932003B000C900D910E980F994C
:10C430001BF0C8F932003B000E900F911098119933
:10C440001BF0C0F932003B00109011911298139923
:10C450001BF0AFF932003B0012901391149815991C
:10C460001BF0B0F932003B00149015911698179903
:10C470001BF09FF9320016901791189819993B00FC
:10C480001BF097F94646189019912100300010349E
:10C4900006F06CFCAC42F8D13100484606F07CF85E
:10C4A0001BB0F0BCBB46B246A946A046F0BDC04694
:10C4B0000000E03F10B50400FEF720FC4223FF33EC
:10C4C000E35C002B00D0400010BDC04610B5FEF765
:10C4D00029FB10BDF0B5DE4657464E464546E0B551
:10C4E000D5B006920793CC4ACC4B12688246920094
:10C4F000D05808911BF004FA0022C94B0490059112
:10C500001BF069F9912352460A900B915B00D05EB3
:10C510001BF0F6F9902352465B000600D05E0F0038
:10C520001BF0EEF9932352460E900F915B00D35C03
:10C53000002B00D1B4E253461933FF331C685D6809
:10C5400002000B00200029001BF063F90B00A8215A
:10C550000200490051440A604B60894651460C92E2
:10C560000D930A664B6620003B00320029001BF049
:10C5700050F9AC2306000F005B0053441E605F605F
:10C58000109353461E655F6506980799A4235B00C8
:10C5900053441C605D609B4653461A6B5B6B1BF0FB
:10C5A00011F9002204000D000C980D999D4B1BF011
:10C5B00030F902000B00200029001BF0FAF80022DD
:10C5C000994B1BF0FFF80022954B1BF022F95346C4
:10C5D000069007919A6BDB6B5E985F991BF0F2F8FF
:10C5E00032003B001BF0E5F80022904B1BF0EAF80C
:10C5F000049A059B1BF00DF9320004000D0004980D
:10C6000005993B001BF005F902000B0020002900F2
:10C610001BF0D8F8060013A80F0004F0DDFC534609
:10C6200000221C6F5D6F0023200029001BF034F9ED
:10C63000002800D16AE20A980B99012400227C4B61
:10C6400002941BF0E6F8002200900191784B13A8A9
:10C6500004F042FD802000068446069913A80A00D3
:10C6600007990096019761440B00029404F0A2FD23
:10C670000022704B13A80092019302946E4B00228B
:10C6800004F02AFD13A91AA805F088F8089B022BCC
:10C6900000D1DBE0902352465B00D35E5246049308
:10C6A00091235B00D45A2823FF33D35C002B00D1A5
:10C6B00047E294235B00D35C002B00D043E292233B
:10C6C0005B00D35A049A5E429A1812B21C1936B211
:10C6D0000492A4B228A805F047FF30A805F044FF53
:10C6E00014201CF085FC050006F0FEF929005046D8
:10C6F000FFF776FD290028A805F04EFF089B013CB6
:10C70000009300224C4B30A928A806F0EDFD23B27F
:10C71000A7B2B34200DA93E0049ABF19B24200DC38
:10C720008EE04A463400D9460A960E9711920E9A28
:10C730009DB2521B12B29046A34606930C954246F8
:10C7400059465046FEF766FB28225346FF329B5C53
:10C75000834252D038A805F007FF40A805F004FF37
:10C7600040A930A806F086FB21A804F035FC4B4612
:10C7700058461E685F681BF0C3F832003B001BF090
:10C7800048F80023040006980D0002931BF0B8F847
:10C7900032003B001BF03DF822002B00009001917D
:10C7A00021A804F007FD40A805F0F0FE0024051EB6
:10C7B00009DD210040A805F0F5FE013421A906F0AD
:10C7C0009DF9A542F5D121A805F028F8089B012B79
:10C7D00000D195E1102B0AD1609B002B07D013A943
:10C7E00040A806F0DFF9609840A906F03BF940A8A0
:10C7F00006F026FC38A806F023FC5B4601331BB28A
:10C800009B46049B9B459AD10C9D0A9A013D2BB2F5
:10C81000934213DB14008AE7F85800209CD50310DC
:10C8200000804F400000E03F00003E4000002E40EE
:10C8300000804FC00000F0BF0000F03F119B994600
:10C8400030A806F0FDFB28A806F0FAFBD54F3B68A0
:10C85000002B00D116E1012300220293D24B1AA82B
:10C8600000920193D14B002204F036FC40AB984675
:10C870001C001E0054AD20001034FDF7F5FAAC4248
:10C88000F9D14B461C685D68109BB2461A685B681C
:10C89000100019000022C64B089009911AF0B9FF48
:10C8A00022002B000490059100200021069407959A
:10C8B0001AF07FFF02000B0000200A920B934092B7
:10C8C0004193049A059B00211AF073FF434604002C
:10C8D0000D00069807999C60DD6002000B001AF0BD
:10C8E00068FF4346186159619C61DD6118625962B5
:10C8F000049A059B089809991AF05BFF464643463F
:10C900009862D9620A9A0B9BB063F16332637363D6
:10C910003264736441460522B464F5641AA804F0D5
:10C9200089FD409C419DE02220002900A14B120678
:10C930000C940D951AF0CEFF002800D0DAE09E4C42
:10C9400043461A695B6915001E00201C089509966C
:10C950001CF088FA2A0033001AF0A6FF002804D041
:10C96000280031001BF058F8041C43461A6A5B6A21
:10C9700015001E00201C049505961CF073FA020099
:10C980000B00280031001AF0A5FF002804D0280071
:10C9900031001BF041F8041C43461A6B5B6B150019
:10C9A0001E00201C069507961CF05CFA02000B0086
:10C9B000280031001AF08EFF002804D02800310032
:10C9C0001BF02AF8041C43461A6C5B6C15001E0011
:10C9D000201C0A950B961CF045FA02000B0028005B
:10C9E00031001AF077FF002804D0280031001BF036
:10C9F00013F8041C211C201C1CF06CF91CF032FAEA
:10CA000004000D0002000B000C980D991AF0D1FEE5
:10CA100022002B0040904191089809991AF0C9FE14
:10CA20004346220018615961049805992B001AF0B9
:10CA3000C0FE4346220018625962069807992B00EF
:10CA40001AF0B7FE43462200186359630A980B99FF
:10CA50002B001AF0AEFE434644465646186459640D
:10CA60004034B069F1691AF063FF050030697169FB
:10CA70001AF05EFF103601002A00386806F0F8FD53
:10CA8000A642EED11AA804F0C9FE13A804F0C6FE0F
:10CA9000012055B0F0BCBB46B246A946A046F0BD49
:10CAA000A823146E556E5B0053441C605D60320019
:10CAB0002000290099463B000C940D951AF0A9FE20
:10CAC0000E9A0F9B1AF087FE534606000F001E6554
:10CAD0005F659E65DF65AC235B0053442000290041
:10CAE0001E605F6010930E9A0F9B1AF074FE040094
:10CAF0000D0049E5200029001AF08EFF041C1FE7F5
:10CB0000012213A940A805F099FF70E680210906CB
:10CB10006B1801212200009113A804F00FFC8AE594
:10CB200042235246FF33D35C002B34D100224046CF
:10CB300013A905F083FF404606F082FA38A806F0F4
:10CB40007FFA0026C6E538A805F00EFD922352466E
:10CB50005B00D25A38A95046FFF7C4FB40AB984659
:10CB6000180005F001FD089D002241460E4B00957E
:10CB700038A806F0B9FB012DD2D0102DDBD1609B77
:10CB8000002BD8D013A9404606F00CF84146609817
:10CB900005F068FFCFE7002213A938A805F04EFF83
:10CBA000C4E7C046108D01200000F03F0000F0BF38
:10CBB0000000E03FFFFFEFC7FFFF7FFF70B50400FD
:10CBC00080204000205C84B0002808D0089D099E89
:10CBD0000A980095019602902000FFF77BFC04B0B4
:10CBE00070BDC0461120704710B504F0CDF810BDDF
:10CBF00010B5040004F0C6F9034B2000236004F0D4
:10CC0000C3F8200010BDC046D8ED0310F0B54E4665
:10CC100057464546DE46E0B51F008023C35C04004E
:10CC2000894616009846B9B0002B07D1404639B066
:10CC3000F0BCBB46B246A946A046F0BDD94ADA4B85
:10CC400012689200D0581AF05BFEA26BE36B0A9058
:10CC50000B910C920D93A26AE36A0E920F930B0054
:10CC6000802109068C4663443900089009933000FE
:10CC7000A26DE36D1AF0A6FD0022CC4B1AF0C9FD9F
:10CC80000022CA4B1AF095FD226E636E0690079142
:10CC9000429843991AF096FD0A9A0B9B1AF0B9FD37
:10CCA000049005911DA804F097F9A66CE76C00228A
:10CCB0000023300039001AF0EFFD002800D161E2B6
:10CCC000089A099B0125009201931DA80022B84BE8
:10CCD000029504F001FA069E079F80200006844614
:10CCE00039003200049E61443000059E0B0066440A
:10CCF0003100002700260090019102951DA804F044
:10CD000059FAA06CE16C32003B001AF0C5FD002816
:10CD100000D1F7E14B46022B00D075E1A54B9B46B5
:10CD20001B68002B00D16BE124AF3E003C0038AD06
:10CD300020001034FDF798F8AC42F9D10C980D9909
:10CD40000023002224922593BA60FB60BA61FB6144
:10CD50003A637B633A647B64BA64FB6438617961EB
:10CD60000522386279620E980F99B862F962B86349
:10CD7000F96339001DA804F05DFB3C697D69E02280
:10CD8000200029008C4B12061A941B951AF0A2FD64
:10CD9000002800D101E2200029001AF03DFE041C09
:10CDA000BA69FB691000E02219001206824B189044
:10CDB00019911AF08FFD002800D1EBE1189819990C
:10CDC0001AF02AFE81463A6A7B6A201C0E920F9363
:10CDD0001CF048F802000B000E980F991AF07AFD2B
:10CDE000002804D00E980F991AF016FE041C48462D
:10CDF000BA6AFB6A109211931CF034F802000B001F
:10CE0000109811991AF066FD002804D01098119915
:10CE10001AF002FE81463A6B7B6B201C1292139330
:10CE20001CF020F802000B00129813991AF052FD22
:10CE3000002804D0129813991AF0EEFD041C4846FD
:10CE4000BA6BFB6B149215931CF00CF802000B00EC
:10CE5000149815991AF03EFD002804D014981599DD
:10CE60001AF0DAFD81463A6C7B6C201C089209931B
:10CE70001BF0F8FF04000D0002000B000898099950
:10CE80001AF028FD002807D0089809991AF0C4FD67
:10CE90001BF0E8FF04000D00BA6CFB6C48460C92D6
:10CEA0000D931BF0DFFF02000B00169017910C98FA
:10CEB0000D991AF00FFD002807D00C980D991AF063
:10CEC000ABFD1BF0CFFF1690179106980799002233
:10CED000364B1AF080FC0022344B1AF09AFC2200E8
:10CEE0002B001AF06FFC0022304B1AF06BFC0A9CEE
:10CEF0000B9D069007910498059922002B001AF0CB
:10CF00006AFC22002B001AF084FC169A179B1AF078
:10CF100059FC22002B001AF055FC069A079B0D00C5
:10CF20000400249825991AF044FC2B002200249038
:10CF30002591B868F9681AF03CFC069A079BB8601E
:10CF4000F9601A981B991AF034FC2B00386179614A
:10CF50001898199922001AF02CFC069A079BB861C0
:10CF6000F9610E980F991AF024FC2B00386279624F
:10CF70001098119922001AF01CFC069A079BB862BF
:10CF8000F962129813991AF014FC2B003863796334
:10CF90001498159922001AF00CFC069A079BB863A6
:10CFA000F9630BE0F85800209CD5031000804F4037
:10CFB00000804FC0108D0120FFFFEFC7089809992E
:10CFC0001AF0F7FB2B00386479640C980D99220055
:10CFD0001AF0EFFB3D00B864F9645F464035B06974
:10CFE000F1691AF0A5FC0400306971691AF0A0FC1F
:10CFF000103601002200386806F03AFBAE42EED14E
:10D000001DA804F00BFC11E614201BF0F1FF834671
:10D0100005F06AFD20201BF0EFFF0500FCF724FF60
:10D0200010239A4600270026AA445046FCF71CFF0E
:10D03000290058462E606F60AE60EF6005F096FEE6
:10D0400000225A4B5146AA61EB6158462E616F612E
:10D0500005F08CFE0022564B206D2A606B601BF0A1
:10D0600001FF0022534B1AF0D4FBA860E9602900AD
:10D07000584605F07BFEA06BE16B00224B4BAE6186
:10D08000EF612A606B60AE60EF601AF09BFB286175
:10D0900069612900584605F069FE5146584605F079
:10D0A00065FE0022414B2900AA60EB6058462E60C5
:10D0B0006F6005F05BFE514658462E616F61AE61B0
:10D0C000EF6124AF05F052FE380005F04DFA5946E5
:10D0D000380005F061FA4B46012B60D0102B0AD1C5
:10D0E000449B002B07D01DA9380005F05BFD3900DB
:10D0F000449805F0B7FC28001BF086FF380005F0C7
:10D100009FFF0BE610301BF073FF824600960197DD
:10D11000264B0022FCF7B0FE51461DA8012204F068
:10D1200089F90698079953461A685B681AF04AFB12
:10D130000022214B1AF046FB5346069007919A684D
:10D14000DB68049805991AF03DFB80220F00120657
:10D15000944602953D000600069B65441800079B17
:10D160003200634419002B000092019302000B006F
:10D170001DA80496059704F01DF8102150461BF0D9
:10D1800047FFC7E50123320000931DA83B0004F0D0
:10D19000D5F895E5094B994615E6084C00E6842339
:10D1A0003800E2581DA905F049FCA4E70000F03F53
:10D1B000000053400000244000804F40FFFF7FFFED
:10D1C00013207047A0230022C254704710B50400FA
:10D1D000024B036005F07EF8200010BDF0ED031057
:10D1E00010B50400044B036005F074F82000A8217A
:10D1F0001BF00EFF200010BDF0ED031010B5040071
:10D2000004F0BEFE034B00222360A0232000E25462
:10D2100010BDC046F0ED0310F0B54E46DE46574651
:10D220004546E0B51F009923C35C050089461600FA
:10D230009B46C1B0002B07D1584641B0F0BCBB465D
:10D24000B246A946A046F0BDDA4ADB4B126892000E
:10D25000D0581AF055FB03000C00A96BEA6B0C9137
:10D260000D92A96AEA6A0E910F92190022000891A4
:10D2700009920C980D998022120694460A93230075
:10D28000634400220B93CD4B1AF0C3FAAA68EB68F3
:10D2900004900591300039001AF094FA049A059B25
:10D2A0001AF087FA0022C64B1AF08CFA0022C54BFE
:10D2B0001AF0AFFA0022C34B1AF07BFA002210904A
:10D2C00011910E980F99BD4B1AF0A3FA2A696B6958
:10D2D00006000F004A984B99069607971AF072FAC3
:10D2E00032003B001AF065FA0022B74B1AF06AFAD6
:10D2F000089E099F32003B001AF08BFA32003B0077
:10D300001AF057FA129013911DA803F065FEAE6C47
:10D31000EF6C00220023300039001AF0BDFA00281B
:10D3200000D14FE20A9A0B9B0124009201930294D0
:10D330000022A64B1DA803F0CFFE109E119F802057
:10D340000006844632003900129E139F02943C006E
:10D35000614464440B0030002100009001911DA83D
:10D3600003F028FF4B46022B00D078E1984B9846FB
:10D370001B68002B00D16EE12CAC2500260040AFCD
:10D3800030001036FCF770FDBE42F9D10C980D99B3
:10D39000002300222C922D93A260E360A261E3613E
:10D3A0002263636322646364A264E3642061616155
:10D3B0000522206261620E980F99A062E162A0636B
:10D3C000E16321001DA804F035F826696769E022B1
:10D3D000300039007F4B12061A961B971AF07AFA22
:10D3E000002800D1F8E1390030001AF015FB071CC5
:10D3F000A269E3691000E02219001206754B18902B
:10D4000019911AF067FA002800D1E3E118981999E8
:10D410001AF002FB061C381C226A636A0C920D93F8
:10D420001BF020FD02000B000C980D991AF052FA27
:10D43000002804D00C980D991AF0EEFA071C301C45
:10D44000A26AE36A0E920F931BF00CFD02000B0020
:10D450000E980F991AF03EFA002804D00E980F99F2
:10D460001AF0DAFA061C381C226B636B14921593BF
:10D470001BF0F8FC02000B00149815991AF02AFA18
:10D48000002804D0149815991AF0C6FA071C301C0D
:10D49000A26BE36B169217931BF0E4FC02000B00E7
:10D4A000169817991AF016FA002804D016981799AA
:10D4B0001AF0B2FA061C381C226C636C06920793B1
:10D4C0001BF0D0FC02000B00049005910698079910
:10D4D0001AF000FA002807D0069807991AF09CFA6B
:10D4E0001BF0C0FC04900591A26CE36C301C0A9206
:10D4F0000B931BF0B7FC06000F0002000B000A980C
:10D500000B991AF0E7F9002807D00A980B991AF03E
:10D5100083FA1BF0A7FC06000F0010981199002257
:10D52000284B1AF058F90022264B1AF072F9049A87
:10D53000059B1AF047F90022224B1AF043F9089A8A
:10D54000099B04900591129813991AF044F9089ACE
:10D55000099B1AF05EF932003B001AF033F9089A81
:10D56000099B1AF02FF9049A059B0F0006002C98CE
:10D570002D991AF01EF93B0032002C902D91A068D5
:10D58000E1681AF016F9049A059BA060E1601A9808
:10D590001B991AF00EF93B002061616118981999E6
:10D5A00032001AF006F9049A059BA061E1610C981B
:10D5B0000D9911E0F85800209CD503100000E03FC1
:10D5C00000003E4000804F4000002E4000804FC0D1
:10D5D000108D0120FFFFEFC71AF0EBF83B0020622F
:10D5E00061620E980F9932001AF0E3F8049A059BD5
:10D5F000A062E162149815991AF0DBF83B002063F1
:10D6000061631698179932001AF0D3F8049A059BB3
:10D61000A063E163069807991AF0CBF83B002064F9
:10D6200061640A980B9932001AF0C3F84746A06467
:10D63000E1644034A869E9691AF07AF906002869BA
:10D6400069691AF075F9103501003200386806F082
:10D650000FF8A542EED11DA804F0E0F8ECE5542344
:10D660009846A8444046FDF725F8070014201BF013
:10D67000BFFC824605F038FA10201BF0B9FC04000C
:10D68000FCF7F2FB00220023210022606360A2600D
:10D69000E360504605F06AFB0022002322606360CD
:10D6A00000226C4B2100A260E360504605F05EFB57
:10D6B0000022694B286D226063601BF0D3FB0022BF
:10D6C000664B1AF0A6F8A060E1602100504605F014
:10D6D0004DFB0026002F33DD2B004546B84657464C
:10D6E0009A4631002800FCF7D7FF102201002000E5
:10D6F0001BF078FC049805990022564B1AF062F84A
:10D7000002000B00206861681AF05CF800222060BB
:10D710006160069807994F4B1AF054F802000B000D
:10D72000A068E1681AF04EF80136A060E1602100BF
:10D73000380005F01BFBB045D3D1A8465546BA4684
:10D740009823EB5C002B50D1002200260027414B90
:10D750002100A260E36050462660676005F006FB8A
:10D760002100504626606760A660E76005F0FEFA7B
:10D77000102120001BF04CFC24A804F0F5FE2CAC7A
:10D78000514624A804F008FF200004F0EDFE20001C
:10D7900024A905F003FC4B46012B1FD0102B0AD106
:10D7A0004C9B002B07D01DA9200005F0FBF92100A0
:10D7B0004C9805F057F9200005F042FC24A805F02C
:10D7C0003FFCD3E50123320000931DA83B0003F08A
:10D7D000B5FDA7E5224E1EE6214F09E69C23200059
:10D7E000EA581DA905F02AF9E5E710201BF000FC16
:10D7F0000600FCF739FB00214046FCF74DFF1022E4
:10D80000010030001BF0EEFB049805990022114B3B
:10D8100019F0D8FF02000B003068716819F0D2FFD0
:10D82000002230607160069807990A4B19F0CAFF10
:10D8300002000B00B068F16819F0C4FFB060F1603D
:10D840003100504605F092FA102130001BF0E0FB49
:10D850007AE7C0460000F03F00005440000024403A
:10D86000FFFF7FFF7047C0462D20704710B50400B2
:10D87000024B0360FDF72CF9200010BDACED031046
:10D88000064B10B503600400FDF722F9B02120001B
:10D8900049001BF0BDFB200010BDC046ACED0310DD
:10D8A00070B50D0004001431E83007F0CFFB2900FB
:10D8B000201D203107F0CAFBEC23E8581BF09AFA30
:10D8C00096235B00E05026003C3BE8581BF0CAFA68
:10D8D000F8231936FF3630607160E8581BF0C2FA41
:10D8E000FC2320636163206461648026E8581BF098
:10D8F000B9FA7600A063E163A064E164A8591BF063
:10D90000B1FAE82320676167EB5C0120A35570BD85
:10D9100010B50400FEF74CFC014B2000236010BD45
:10D9200018EE0310F8B5CE464746080080B50E0045
:10D9300006F010FE071E38DD1D4B0024994601231A
:10D940000025984608E0002D27D13038C0B20928BC
:10D9500023D90125A74210DD2100300006F052FF37
:10D96000012D0FD0022DEED10300203BDBB25E2B48
:10D9700013D99F2811D802256D422800C0BCB94692
:10D98000B046F8BD3A280AD823280CD94B4624388B
:10D99000C0B2C34042461A4205D00134DAE74138EA
:10D9A000C0B21928F9D90225D4E70025E5E7C04619
:10D9B000C3FE7F00F0B5DE4657464E464546E0B50D
:10D9C00085B0040007F054FC002806D198235B00C2
:10D9D000E258043BE3589A4215D09E2200232500CA
:10D9E0005200A3501035043A29002000A350FFF73D
:10D9F00099FF02300FD1902200235200A3501C3215
:10DA0000A350043AA350002005B0F0BCBB46B24678
:10DA1000A946A046F0BD280006F09CFD0028EADDDE
:10DA20000021280006F02AFF012301220093002193
:10DA30000133824615F07CFF071E57D09A235B0006
:10DA4000E058002801D01BF0DFFA90250423F85E8F
:10DA5000BB886D001A041343635140431BF0CCFA9A
:10DA60009A235B00E0509C46635FB868002B3ADD68
:10DA700091235B009846E15E9C2300229E265B007A
:10DA8000D3460125BA4699460F0076000392039AC1
:10DA90007A43002F25DD002302920EE04A464946D4
:10DAA0003D70A25801326250A25901330132A25195
:10DAB0004246A75E01309F420BDD029A29009F1863
:10DAC0006246A258D719027811401542E6D1397042
:10DAD000EAE79023039A5B0001320392E35E9342EC
